:100000000C943C050C949D050C9445080C949D059E
:100010000C949D050C949D050C949D050C949D05D8
:100020000C949D050C949D050C949D050C94B7159E
:100030000C949D050C9453230C949D050C949D05E4
:100040000C949D050C949D050C949D050C94A8237F
:100050000C949D050C949D050C949D050C949D0598
:100060000C949D050C949D050C949D050C949D0588
:100070000C949D05EF09F109FD09FD09FD09FD0934
:10008000FD09FD09F309F509F709FD09FD09F10964
:10009000FF09FD09FD09B909EF09FD09FD09F50988
:1000A000FD09FD09FD09FD09FD09FD09F709EF0934
:1000B000DB09FD09DF09FD09FD09FD09BB09F3099C
:1000C000FD09FD09E909FD09FD09FD09BD09FB0956
:1000D000FD09DD09FD09F109FD09FD09ED09E10948
:1000E000FD09E309F509FD09FD09FD09EB09E5092C
:1000F000FD09FD09FD09FD09FD09FD09FD09E709E6
:10010000FD09BF09FD09FD09F309FD09FD09FB0909
:10011000FD09FD09FD09FD09FD09FD09FD09FD09AF
:10012000FD09C109FD09FD09FD09E909FD09FD09EF
:10013000FD09FD09FD09FD09FD09FD09FD09FD098F
:10014000C309FD09C509C709FD09FD09FD09C9095B
:10015000CB09CD09FD09CF09D109FD09FD09FD092B
:10016000F909D309FD09D709D509D909FD09FD09FF
:10017000FD09FD09FB09230A310A3D0A3D0A150A5A
:100180003D0A3D0A3D0A3D0A3D0A3D0A3D0A3D0A37
:100190003D0A3D0A3D0A3D0A3D0A170A3D0A190A71
:1001A0003D0A3D0A3D0A3D0A350A3D0A4C0A330A1A
:1001B0003D0A3D0A3D0A3D0A3D0A3D0A3D0A3D0A07
:1001C0003D0A3D0A3D0A3D0A3D0A0D0A290A1B0A5D
:1001D0002D0A3D0A1D0A3D0A210A3D0A2B0A1F0A63
:1001E0002F0A250A270A3D0A3D0A3D0A3D0A3D0A13
:1001F0003D0A3D0A0F0A110A130A370A390A3D0A55
:100200003D0A3D0A3B0AD80AEE0AFC0A0A0B2A0BF1
:10021000410B640B810B200C4D0CE40C3F0D250DA4
:10022000540D6F0D790D800D840D8B0D1D1444142C
:100230003C1544143C159014B3143C150A151915BB
:100240005A195A1984198419DF190A1C0A1C0A1C24
:10025000131A0A1CFE1AFE1AC41B0A1CD91BF71B10
:10026000007B46010203763A687F6577482B353B71
:100270006978796439141E3C6A7A1D16041A1F3D88
:100280006B061B070821203E6C2C19091715223F0D
:100290006D11050B0A1C23406E7E100D182425419C
:1002A0006F360E0C122726427037380F33132D434A
:1002B000717534322F2E44727C7D28303174457331
:1002C00051504A524D492A5466594F5C5F4C4B4E2F
:1002D00062635A5D5E60295367585B5657614755A4
:1002E0004842403E3C3A3B456843413F3D2B357ECA
:1002F000697A790078141E7C6A7B1D16041A1F7FA8
:100300006B061B070821204D6C2C19091715224A72
:100310006D11050B0A1C234C6E49100D1824255134
:100320006F360E0C1227264F7037380F33132D52AD
:10033000717534502F2E4E72397D283065314B73D4
:100340005464586776012A773259745C5F660203F9
:1003500062635A5D5E60295344575B565561474658
:1003600080291E1F20212223242526272D2E2A2BDB
:10037000141A0815171C180C12132F30287804169D
:1003800007090A0B0D0E0F33343579311D1B061981
:100390000511103637387D557A2C393A3B3C3D3EB5
:1003A0003F4041424353475F6061565C5D5E575931
:1003B0005A5B62634648324445677B7F65030102AE
:1003C0005250514F68696A6B6C6D6E6F70717258E4
:1003D00000494C754A4D734B4E767C777E7466545B
:1003E000722530325820006225303458200077259D
:1003F0003032582000214353335F4630210A002118
:100400004353335F46305F455252210A0021435324
:10041000335F46305F4F5652210A00214353335F0A
:100420005245414459210A00214353335F455252FA
:10043000210A00214353335F4F5652210A002143C2
:1004400053325F45305F4630210A00214353325F0B
:100450004630210A00214353325F4530210A0021F2
:100460004353325F494E4954210A00214353325FBE
:10047000455252210A00214353325F4F5652210AFE
:1004800000214353315F45305F25303258210A0047
:10049000214353315F455252210A00214353315FBA
:1004A000494E56210A004C25752000532575200021
:1004B00049443A25303458282564290A004D6F757F
:1004C00073653A206E6F7420737570706F72746507
:1004D000640A000A4552523A253032580A00522521
:1004E0007520005725752000572575200057257564
:1004F0002000582575200049257520000A58545FB2
:100500004552520A00696E69740A000A4552523A0D
:10051000253032580A000A4B6579626F6172642097
:1005200073746172742E0A000A55534220636F6E11
:10053000666967757265642E0A000A0A544D4B3A63
:1005400035396637353064302F4C5546410A0A003C
:100550003403490042004D002000500043002000B9
:100560006B006500790062006F006100720064003A
:10057000200063006F006E0076006500720074005A
:100580006500720000000E0374002E006D002E0046
:100590006B002E000000040309040902740004012A
:1005A00000A032090400000103010100092111012A
:1005B00000012240000705810308000A0904010028
:1005C0000103000000092111010001223600070586
:1005D000820308000A090402000203000000092146
:1005E00011010001222200070583032000010705F5
:1005F0000303200001090403000103000000092196
:1006000011010001223900070584032000011201B5
:10061000100100000008EDFEEE1B010001020001C8
:1006200005010906A101050719E029E715002501C3
:1006300095087501810205081901290595057501BF
:1006400091029501750391010507190029F715001D
:10065000250195F875018102C00631FF0974A101D9
:100660000975150026FF0095207508810209761589
:100670000026FF00952075089102C005010980A1A0
:100680000185021601002637001A81002AB700757D
:100690001095018100C0050C0901A1018503160117
:1006A00000269C021A01002A9C0275109501810007
:1006B000C005010906A101050719E029E715002574
:1006C00001950875018102950175088101050819D8
:1006D00001290595057501910295017503910105A3
:1006E00007190029FF150026FF00950675088100EF
:1006F000C0636F6E73756D65723A20253034580A89
:100700000073797374656D3A20253034580A000AF5
:10071000002530325820006B6579626F6172643A4F
:1007200020004C45443A20253032580A002530320A
:10073000583A202530386225730A00722F63203022
:10074000313233343536370A0064656C5F6B657956
:100750005F6269743A2063616E27742064656C3A45
:1007600020253032580A006164645F6B65795F62EE
:1007700069743A2063616E2774206164643A2025AD
:100780003032580A003F00433E20004C25640A00E6
:100790000A092D20436F6E736F6C65202D0A455337
:1007A000432F713A09717569740A000A092D204DA9
:1007B00061676963202D0A643A0964656275670A96
:1007C000783A096465627567206D61747269780AA8
:1007D0006B3A096465627567206B6579626F617257
:1007E000640A6D3A096465627567206D6F7573659B
:1007F0000A763A0976657273696F6E0A733A0973FD
:1008000074617475730A633A09636F6E736F6C6514
:10081000206D6F64650A302D343A096C6179657218
:10082000302D34284631302D4634290A50617573F5
:100830003A09626F6F746C6F616465720A6E3A098F
:100840004E4B524F0A003F004E4B524F3A206F66BC
:10085000660A004E4B524F3A206F6E0A0074696D63
:1008600065725F72656164333228293A202530341D
:100870006C580A006B6579626F6172645F6E6B72AF
:100880006F3A2025580A006B6579626F6172645F68
:1008900069646C653A2025580A006B6579626F615E
:1008A00072645F70726F746F636F6C3A2025580AC0
:1008B00000686F73745F6B6579626F6172645F6CFF
:1008C00065647328293A2025580A000A092D205307
:1008D0007461747573202D0A004743433A20352E06
:1008E000342E30204156522D4C4942433A20322E6C
:1008F000302E30204156525F415243483A206176B3
:100900007233350A004F5054494F4E533A204C55DC
:1009100046412045585452414B455920434F4E5370
:100920004F4C4520434F4D4D414E44204E4B524F6E
:10093000204B45594D41505F53454354494F4E203C
:10094000424F4F544C4F414445525F53495A450A18
:10095000004255494C443A203539663735306430C9
:10096000202831323A32393A3530204D6179203100
:10097000302032303230290A005649443A2030784B
:100980004645454428742E6D2E6B2E29205049442F
:100990003A203078316265652849424D2050432025
:1009A0006B6579626F61726420636F6E76657274D5
:1009B000657229205645523A203078303030310A5D
:1009C00000444553433A20636F6E76657274204944
:1009D000424D205043206B6579626F6172642074D0
:1009E0006F205553420A000A092D2056657273691B
:1009F0006F6E202D0A000A6D6F7573653A206F6661
:100A0000660A000A6D6F7573653A206F6E0A000AF8
:100A10006B6579626F6172643A206F66660A000ADC
:100A20006B6579626F6172643A206F6E0A000A6DBD
:100A300061747269783A206F66660A000A6D6174A3
:100A40007269783A206F6E0A000A64656275673AC7
:100A5000206F6E0A000A64656275673A206F6666E9
:100A60000A000A0A626F6F746C6F616465722E2EE1
:100A70002E2000433E20000011241FBECFEFD4E003
:100A8000DEBFCDBF04B603FE41C0809185039091C7
:100A90008603A0918703B09188038730904BA740CD
:100AA000B04BA1F510928503109286031092870334
:100AB0001092880314BE0FB6F894A8958091600038
:100AC000886180936000109260000FBE1092010850
:100AD00010920008E3E0F0E089E080935700E49191
:100AE000E695E370E150E33040F4F0E0EE0FFF1FD5
:100AF000E35DFE4F8081918102C080E090E1E0E003
:100B0000F0E8E81BF90BF695E795099511E0A0E0F0
:100B1000B1E0EAE7FBE402C005900D92A433B1070F
:100B2000D9F723E0A4E3B1E001C01D92A538B207D4
:100B3000E1F70E943C110C94BB250C940000FF933C
:100B4000EF93E0913401F0913501309709F0099568
:100B5000EF91FF910895FC018591803011F0EFDF56
:100B6000FBCF0895FF27E0E230E247FF0CC041953C
:100B700097FF09C0EDE26095709580959095611D95
:100B8000711D811D911D27FF02C0219530E350E2A8
:100B9000AA27660F771F881F991FAA1FA41710F096
:100BA000A41B63955A95A9F7AA3008F0A95FA05D28
:100BB000AF93F395611571058105910541F7ED320C
:100BC00011F4EF93F395F21718F43F93F395FBCFDD
:100BD0008F91B5DFFA95E1F70895E991F991859143
:100BE000803021F0853219F0AADFF9CF089520E096
:100BF000E89455915532C1F3503311F468945591EE
:100C00005A3348F4505390F3220F022E220F220F32
:100C1000200D250FF4CF0EF421958991999153362B
:100C200019F3533729F1533559F1BC018827992716
:100C3000E8945C3621F489919991689455915436E1
:100C400039F446EF7EF077FF0DC08FEF9FEF0AC0BB
:100C500055374AE039F0583540E121F0523642E04C
:100C600009F00895FF93EF937DDFEF91FF91B7CFE8
:100C7000FF93EF93FC0181918030B9F360DFFBCFEC
:100C8000FF93EF9368DFF1CFDF93CF93CDB7DEB75C
:100C90002596A3DFCF91DF91089590913F01923087
:100CA00081F09330D1F0913031F5E72FF0E0B3E0EF
:100CB000EE0FFF1FBA95E1F7E60FF11DE05AFC4F6A
:100CC00017C0E72FF0E0A3E0EE0FFF1FAA95E1F7B2
:100CD000E60FF11DE052FD4F0BC0E72FF0E073E08F
:100CE000EE0FFF1F7A95E1F7E60FF11DE05AFD4F79
:100CF000E491E03819F480E090E0089590E023E07A
:100D0000880F991F2A95E1F72E2F207730E044E0D5
:100D1000359527954A95E1F7820F931F54E0880F88
:100D2000991F5A95E1F7EF709C012E0F311DF901C3
:100D3000EE0FFF1FE050F84985919491089559985E
:100D4000519A08955198599A08955898509A08952B
:100D50005098589A08955198599A85E08A95F1F7D4
:100D6000000089B18695817008955098589A85E061
:100D70008A95F1F7000089B181700895CF93DF93D0
:100D8000EC010E94AB06882341F0209731F085E00A
:100D90008A95F1F700002197F4CFCE01DF91CF9132
:100DA0000895CF93DF93C2E3D0E00E94AB06811198
:100DB00008C0209731F085E08A95F1F7000021976F
:100DC000F4CFCE01DF91CF9108952E9826982F98D9
:100DD00027980E949F060E94A806E9E6F0E080811D
:100DE00088608083E9980895E19AE99A0E94A206B2
:100DF0000C94A806E9980E949F060C94A806CF932D
:100E00002FB7F8948091020190910301AC0144271F
:100E100041155F4F21F0C92FAC015F6F07C08F3FB5
:100E20004FEF940741F0C82F4FEF5FEF509303014E
:100E30004093020101C0CFEF2FBF9C012F6F2F3FC6
:100E40003F4F81F02091720320FF1FC09F938F932B
:100E500087EE93E09F938F930E9444060F900F902C
:100E60000F900F90CF3F99F08091720380FF12C0D6
:100E70001F92CF9380EE93E09F938F930E9444063E
:100E80000F900F900F900F9005C0CF3F19F48FEF88
:100E90009FEF02C08C2F90E0CF910895CF93CAE1CD
:100EA000C15069F00E94FF068F3F2FEF920749F46F
:100EB0008FE99FE00197F1F700C00000F1CF8FEFBD
:100EC0009FEFCF91089580E090E890930101809387
:100ED00000018FEF9FEF909303018093020108952B
:100EE000EF92FF920F931F93CF93DF93082F1092EF
:100EF00037018091720380FF0CC01F920F938EEE1A
:100F000093E09F938F930E9444060F900F900F9051
:100F10000F90E9980E949F060E94A8068FE891E032
:100F20000197F1F700C000000E94A5060E94A206EA
:100F300080E197E20E94BE06892B11F481E079C01E
:100F4000C0E0D0E0FF24F39410E0EE24E39490E5B9
:100F50009A95F1F7C8010C2E02C0959587950A94D1
:100F6000E2F780FF04C0FE240E94A80602C00E948F
:100F7000A5060E94D106892B11F482E05AC082E3B3
:100F800090E00E94BE06892B11F483E052C02196A6
:100F9000C830D105E1F680E58A95F1F7FF2019F018
:100FA0000E94A80602C00E94A5060E94D106892BB5
:100FB00011F484E03EC082E390E00E94BE06892BDB
:100FC00011F485E036C090E59A95F1F70E94A806E5
:100FD000C2E3D0E00E94B506882341F0209741F09B
:100FE00025E02A95F1F700002197F4CFCD2B11F4DD
:100FF00086E01FC082E390E00E94BE06892B11F4B8
:1010000087E017C00E94D106892B19F0C2E3D0E017
:1010100009C088E00EC0209759F085E08A95F1F765
:10102000000021970E94B5068823A9F3CD2BB9F4BF
:1010300089E0809337018091370180618093370187
:101040000E94A2060E94A806E19AE99A8FEF9FEFFC
:10105000DF91CF911F910F91FF90EF9008958FEF47
:101060009FEF90930301809302010E9463070E9407
:10107000A2060E94A806E19AE99ADF91CF911F91FA
:101080000F91FF90EF900C944E071F920F920FB6A6
:101090000F9211242F933F934F935F938F939F93BE
:1010A00029B1217080917303409100015091010199
:1010B0004115504819F48093360112C090913601C1
:1010C000891771F09F5F891759F090E2909337016B
:1010D0008093360180E090E89093010180930001B5
:1010E000809100019091010196958795909301015F
:1010F00080930001222349F0809100019091010129
:10110000906890930101809300018091000190917B
:10111000010199278038910509F4CFC0A8F48032E5
:10112000910509F4CAC038F4009709F4C6C0409785
:1011300009F46FC08AC08034910509F4BEC08035BF
:10114000910509F466C081C0803C9105F9F050F426
:101150008039910509F45DC0803A910509F075C0A8
:1011600084E63DC0803D910509F453C0803E910561
:1011700009F06BC08091000190910101892F99279E
:10118000909301018093000184E051C084E6499965
:101190000FC0882369F025E02A95F1F700008150FF
:1011A000F6CF882349F095E09A95F1F70000815039
:1011B0004999F7CF811181C080910001909101017F
:1011C000892F9927909301018093000183E02FC01C
:1011D000882379F025E02A95F1F700008150499B9A
:1011E000F7CF07C0882349F095E09A95F1F7000002
:1011F00081504999F7CF811160C080910001909191
:101200000101892F9927909301018093000182E0C9
:101210000EC0809100019091010136E0969587956E
:101220003A95E1F7909301018093000181E080936A
:101230003801809100019091010199278F3F91051C
:10124000A1F48FEF8093370110C080E880933701BD
:1012500080E090E8909301018093000180E09FEF8F
:10126000909303018093020128C080910201909124
:101270000301882781159F4F19F080E4809337017F
:101280008091020190910301982F88279093030188
:1012900080930201209100013091010180910201AF
:1012A00090910301822B909303018093020180E0CF
:1012B00090E890930101809300019F918F915F913D
:1012C0004F913F912F910F900FBE0F901F90189547
:1012D000CF93C82F8DEE0E9470078A3F910521F4AD
:1012E0008C2FCF910C947007CF910895E82FE6953D
:1012F000E695E695EF70F0E0EE5BFE4F4081282F1B
:10130000277081E090E002C0880F991F2A95E2F7CC
:10131000242F30E028233923232B11F4842B8083BE
:101320000895E82FE695E695E695EF70F0E0EE5B20
:10133000FE4F2081382F377081E090E002C0880F87
:10134000991F3A95E2F7422F50E048235923452B45
:1013500019F08095822380830895482F50E0FA0188
:101360003397E138F10508F048C0E65CFF4F0C9474
:10137000B52587E108958FE108958CE5089580E60D
:10138000089582E6089587E2089583E508958FE23F
:10139000089589E3089587E308958FE3089587E426
:1013A00008958FE4089586E508958EE508958FE702
:1013B000089580E0089585E608958EE608958FE605
:1013C000089580E3089588E3089580E4089588E40B
:1013D000089580E5089587E508958FE5089588E1EB
:1013E000089588E0089580E2089580E1089589E1F4
:1013F00008958DE6089588E208958F7708958FE027
:101400000895CF93482F50E0FA017C97E834F10516
:10141000A0F5E554FF4F0C94B52585E53EC08AE55F
:101420003CC08BE53AC08CE538C08DE536C08EE512
:1014300034C08FE532C080E630C081E62EC082E63F
:101440002CC083E62AC08FE628C081E726C082E749
:1014500024C084E722C085E720C087E71EC088E754
:101460001CC08AE71AC08CE718C08FE716C080E757
:1014700014C089E712C08BE710C0C82F1F928F934A
:1014800081E894E09F938F930E9444060F900F9001
:101490000F900F908C2F01C084E5CF9108950F938A
:1014A0001F93CF93DF930E9481238C010E94FF063C
:1014B000EC01019631F4C8010E949923843F9140C8
:1014C000A8F3CE01DF91CF911F910F9108950E9453
:1014D000E5060C94F4068091720381608093720398
:1014E000E2E4F1E0119281E0E235F807D9F70895DE
:1014F000E82FF0E0EE5BFE4F80810895E2E4F1E03A
:10150000119281E0E235F807D9F70895982F80917C
:101510003F01882349F092FB882780F990FD826083
:1015200091FD84600C9468090895CF93DF938091B6
:101530003701882311F1809137011F928F938BE03F
:1015400095E09F938F930E944406809137018075A8
:101550000F900F900F900F9071F480913E018930A1
:1015600051F485E095E09F938F930E94440610927A
:101570003E010F900F901092370180913801843016
:1015800051F48CEF94E09F938F930E944406109245
:1015900038010F900F90E0913E018E2F90E08A303D
:1015A000910508F0B7C3FC01ED5FFE4F0C94B52523
:1015B0000E9481239F938F9387EF94E09F938F9353
:1015C0000E94440610923F01109241011092400186
:1015D0000E947E0A0E940A1981E035C00E94FA0624
:1015E0002E98269A2F98279A0E94812390933D0146
:1015F00080933C0182E00BC080913C0190913D01C1
:101600000E949923853F914008F484C383E080932E
:101610003E0180C32E9826982F9827980E94630732
:101620000E94F4060E9481239F938F9382EF94E09F
:101630009F938F930E9444060E94812390933D01C3
:1016400080933C0184E080933E010F900F900F90B7
:101650000F9060C30E94FF06019609F45BC30E94CD
:1016600081239F938F938DEE94E09F938F930E949D
:1016700044060E94812390933D0180933C0185E0C4
:10168000E2CF80913C0190913D010E949923853FDA
:10169000914018F087E080933E010E94FF0601967A
:1016A00009F438C30E9481239F938F9388EE94E0BE
:1016B0009F938F930E9444060E94812390933D0143
:1016C00080933C0186E0BFCF80913C0190913D0129
:1016D0000E949923853F914018F087E080933E0156
:1016E0000E94FF06019609F415C30E9481239F936F
:1016F0008F9383EE94E09F938F930E94440687E03C
:10170000A2CF0E9481239F938F938EED94E09F93AD
:101710008F930E94440682EF0E9470070F900F90F3
:101720000F900F908F3F2FEF920789F08A3F91051E
:1017300089F40E944F0A8F3F3FEF930771F0D82F33
:10174000CC270E944F0A9E01282BC90108C08FEFA9
:101750009FEF05C08EEF9FEF02C080E090E0909376
:1017600041018093400180913701882381F080916D
:1017700037011F928F9383ED94E09F938F930E9484
:101780004406109237010F900F900F900F908091A8
:10179000400190914101009711F482E02BC08F3FEE
:1017A0003FEF930711F481E025C08E3F2FEF9207A2
:1017B000A1F38F3F910559F48DEB94E09F938F93A4
:1017C0000E94440610923F010F900F901FC09C0191
:1017D00025583B4A2230310580F480EF0E94700783
:1017E0008A3F9105D1F683E00E9470078A3F9105F8
:1017F000A1F683E080933F0109C0803B3FEB930754
:10180000C1F3882781159F4BA1F3C7CF80913F017A
:101810001F928F93809141018F93809140018F930C
:1018200080EB94E09F938F930E94440688E080931E
:101830003E010F900F900F900F900F900F906AC283
:101840000E9481239F938F938BEA94E09F938F93C1
:101850000E9444060F900F900F900F9080913F01CF
:10186000823031F0833041F488EF0E94700704C069
:101870000E9482160E94860A89E080933E010E949F
:1018800081239F938F9386EA94E09F938F930E9486
:1018900044060F900F900F900F90C0913F01C230FF
:1018A00009F47EC0C33009F43FC1C13009F032C22F
:1018B0000E94FF068F3F3FEF930709F42BC29C0164
:1018C0002F7733272236310548F08BE994E09F9338
:1018D0008F930E94440610923B01FEC020913B0171
:1018E000223009F444C028F4222351F0213019F1A8
:1018F00054C0233009F447C0243009F449C04DC016
:10190000803E910569F01CF4009739F00EC0813ECD
:10191000910549F08F3F910541F480E994E0D8C0EA
:10192000C0933B01F7C182E02BC08038910508F4D9
:101930005BC18F77A9C18633910579F124F48A328E
:10194000910539F42AC08A3A910539F1863B91050F
:1019500021F18038910528F40E94010A0E9476093D
:101960001CC08F770E94010A0E94910916C08D3118
:10197000910529F08D39910581F484E001C083E05F
:1019800080933B01C7C18534910539F485E52CC1AD
:101990008534910511F485E577C110923B01BAC1F8
:1019A0000E94FF068F3F2FEF920709F4B3C1E09129
:1019B0003A014E2F50E04930510508F0B2C0FA010B
:1019C000E35FFE4F0C94B525803E910569F18CF4E0
:1019D0008338910569F12CF4009771F586E794E05E
:1019E000E8C08438910531F18A3A910509F490C133
:1019F00023C0803F9105D1F02CF4813E9105E1F4A4
:101A000084E086C08C3F910509F482C18F3F910527
:101A100099F40E947E0A8BE694E09F938F930E9434
:101A2000440610923A0158C082E072C081E070C052
:101A300082E063C08FE761C08038910508F4D4C0AC
:101A40000E947E0A8FE594E043C08935910509F430
:101A500068C0803F910521F08231910519F461C081
:101A600083E056C010923A018038910518F40E9424
:101A7000AD09BAC00E947E0A85E594E029C083388A
:101A8000910529F08438910521F48FE748C082E060
:101A900046C010923A018038910508F4F5C00E94C2
:101AA0007E0A8BE494E014C010923A0182319105D1
:101AB00009F430C18935910509F42CC180389105AC
:101AC00018F40E94AD09E0C00E947E0A8EE394E003
:101AD0009F938F930E9444060F900F9019C18431F9
:101AE000910529F0803F9105E1F486E011C085E081
:101AF0000FC087379105A9F480E00E94760911C0D4
:101B0000449779F487E004C0803F910551F488E060
:101B100080933A01FFC08737910519F480E00E9455
:101B2000910910923A01F6C00E94FF068F3F3FEFE5
:101B3000930709F4EFC020913901213009F45AC00C
:101B400038F0223009F4ACC0233009F4CCC0E2C034
:101B50008638910509F43FC09CF483389105B9F1AA
:101B60003CF4009721F180389105D9F582E0B3C0AB
:101B70008438910571F18538910599F58BE034C071
:101B80008C38910561F144F48738910531F18B3837
:101B9000910539F581E028C0803F9105B1F08F3F74
:101BA000910581F08D389105E1F48AE01DC083E351
:101BB00094E09F938F930E9444060E947E0A0E94A5
:101BC0000A196BC088E294E083CF81E084C082E090
:101BD0000BC08FE709C086E007C080E005C089E040
:101BE00003C08038910518F40E94760993C08BE1F8
:101BF00094E04FC086389105E1F1DCF4833891051B
:101C0000A1F17CF40097D9F58DE094E09F938F9338
:101C10000E9444060E947E0A0E940A19109239010D
:101C20003CC08438910519F18538910541F58BE068
:101C30006CC08C389105F9F04CF48738910509F4A3
:101C400063C08B389105D9F481E05FC08D38910570
:101C5000A1F08F3F910599F48FEF93E09F938F93BD
:101C60000E9444061092390137CF82E04EC08FE7C0
:101C70004CC086E04AC089E048C08AE046C0109265
:101C800039018038910518F40E94910943C085EF0D
:101C900093E09F938F930E9444060F900F903AC059
:101CA0008532910591F03CF48631910581F04E9793
:101CB000A9F480E00DC08632910529F0803F91059E
:101CC00069F483E008C08DE503C083E501C081E5C8
:101CD0000E94760905C0809339011CC00E947E0ACB
:101CE0001092390117C08E31910571F024F4469796
:101CF000A9F781E50AC08532910521F0869771F731
:101D00008DE503C083E501C080E00E949109E8CF22
:101D100010923E0181E0DF91CF910895809176028B
:101D200008950895CF93DF9300D01F92CDB7DEB70B
:101D300020917C03243021F523E029839B838A832F
:101D400082E08093E9008FEF9091E800815095FD4B
:101D500006C095ED9A95F1F700008111F5CF8091BD
:101D6000E80085FF0DC040E050E063E070E0CE0188
:101D700001960E94EE128091E8008E778093E80031
:101D80000F900F900F90DF91CF910895CF93DF9335
:101D900000D01F92CDB7DEB720917C03243029F507
:101DA00022E02983805891099B838A832093E9004C
:101DB0008FEF9091E800815095FD06C095ED9A95C2
:101DC000F1F700008111F5CF8091E80085FF0DC08B
:101DD00040E050E063E070E0CE0101960E94EE1218
:101DE0008091E8008E778093E8000F900F900F901D
:101DF000DF91CF910895CF93DF93EC0190917C0315
:101E0000943009F048C0809114018823D9F0809162
:101E100015018823B9F09093E90081E8815049F0D9
:101E20009091E80095FD05C09AE29A95F1F700C0FF
:101E3000F5CF8091E80085FF2EC040E050E060E2E1
:101E400070E019C081E08093E90081E8815059F089
:101E50009091E80095FD07C0EFE3F1E03197F1F7CD
:101E600000C00000F3CF8091E80085FF14C040E07F
:101E700050E068E070E0CE010E94EE128091E80030
:101E80008E778093E80080E2FE01A6E5B2E0019043
:101E90000D928A95E1F7DF91CF910895CF93C0918C
:101EA0005401C1110BC00E948D23643C794081050F
:101EB000910520F081E080935401C1E08C2FCF91F7
:101EC0000895FF920F931F93CF93DF93D82F0FB6F0
:101ED00007FE83C080917C03843081F080910701EC
:101EE00090E001962091090130E082239323209114
:101EF000080130E08217930709F0C9C00E944E0F15
:101F0000811110C08091070190E001962091090194
:101F100030E0822393232091080130E08217930759
:101F200009F0B5C00E9481238C01C091E900CF70F7
:101F30009091EC00892F817090FD80E8C82B83E0A0
:101F40008093E90085E0F82E8091EB0085FD42C08A
:101F50008091EB0080FF3EC08091EE0087FF3AC089
:101F60008091080190910701981709F457C090914A
:101F7000E80095FF8AC0E0910501F0910601E80FA5
:101F8000F11D20818F5F90910901892380930801C1
:101F90002093F1008091E80085FDE2CF8091E80078
:101FA00080FFDECF8091E8008E778093E800F0928A
:101FB0000401D6CF8091070190E00196209109019C
:101FC00030E0822393232091080130E082179307A9
:101FD00009F448C0CF70C093E90040910701842FF5
:101FE00090E001962091090130E082239323209113
:101FF000080130E08217930709F44CC0E091050115
:10200000F0910601E40FF11DD083809107018F5FED
:10201000909109018923809307013CC08091E800D9
:1020200085FF33C0D093F10081E09091F2009923B5
:1020300091F09091E80090FF0EC09091E80095FF1C
:1020400003C01092F100F9CF9091E8009E77909331
:10205000E800F0920401882309F4ACCFCF70C0935C
:10206000E90018C080910401882309F4B3CF0E94CD
:1020700081239C018017910711F4890165CF90910C
:102080000401915090930401F8CF80E0CECF4091AD
:102090000701B4CF80E0DF91CF911F910F91FF90A6
:1020A0000895089542E061EC81E00E94671242E0E9
:1020B00061EC82E00E94671242E261EC83E00E94E0
:1020C000671242E261EC84E00C94671280917E0317
:1020D000833009F455C030F4813071F0823009F456
:1020E0008EC008958A3009F47AC08B3009F460C03C
:1020F000893009F09CC020C080917D03813A09F0AD
:1021000096C08091E800877F8093E80080918103EA
:1021100090918203892B21F460E286E592E003C06E
:1021200060E080E090E070E00E943B138091E80066
:102130008B778093E800089580917D03813209F0C8
:1021400076C08091810390918203009719F00397E4
:1021500009F06DC08091E800877F8093E80080914E
:10216000E80082FD05C080917C038111F8CF5FC03B
:102170008091F100809376028091E8008B7753C0C4
:1021800080917D03813A09F052C080918103909142
:102190008203892B09F04BC08091E800877F8093F0
:1021A000E8008091E80080FFFCCF8091140136C0E8
:1021B00080917D038132D9F58091810390918203D2
:1021C000892BA9F58091E800877F8093E8000E9421
:1021D0009C1280917F03809314010C940A198091C2
:1021E0007D03813221F58091E800877F8093E800AC
:1021F0000E949C12809180038093770208958091C1
:102200007D03813AA1F48091E800877F8093E80004
:102210008091E80080FFFCCF809177028093F100ED
:102220008091E8008E778093E8000C949C120895CA
:102230008091760280935501109276020E947E0A68
:102240000C940A190C9418110E942E2380917A0381
:10225000882329F00E943B2381110C945112089588
:102260000E944F23809155018093760208950C942B
:10227000301108950C943911CF9384B7877F84BFB0
:102280000FB6F894A89580916000886180936000F3
:10229000109260000FBE90E080E80FB6F894809333
:1022A0006100909361000FBE81E69FE00E940123D0
:1022B0008AE091E00E947D168AE395E00E94AB05DA
:1022C0000E94670A0E9431170E9454150E94A715A8
:1022D00078940E94331780917C03843029F00E9407
:1022E00062160E943911F7CF88E295E00E94AB0593
:1022F0000E943A1186E195E00E94AB05C3E080910F
:102300007C03853019F40E942411F9CF0E943717FD
:102310002091E4003091E5008091520190915301A9
:102320002817390709F464C08091E4009091E50012
:1023300090935301809352010E944E0F882309F419
:1023400057C080917C03843009F052C08091E9002D
:102350008F702091EC00922F917020FD90E8892BD6
:10236000C093E9009091EB0090FF3FC09091EE0088
:1023700097FF3BC09091080120910701291709F1AF
:102380002091E80025FF1DC0E0910501F0910601B4
:10239000E90FF11D30819F5F2091090192239093F5
:1023A00008013093F1009091E80095FDE3CF909102
:1023B000E80090FFDFCF9091E8009E779093E800CF
:1023C000D9CF9091F200992381F09091E80090FF8D
:1023D0000CC09091E80095FF03C01092F100F9CF76
:1023E0009091E8009E779093E8008F708093E900C9
:1023F0000E94621684CF292F332723303105C9F07C
:1024000060F42130310581F02230310509F041C0FE
:1024100084E790E02AE935E040C021323105E1F05F
:102420002232310531F135C082E190E02EE036E014
:1024300034C099278130910549F028F0029749F579
:10244000E0E5F5E005C0E6E9F5E002C0E6E8F5E024
:10245000849190E09F0121C064307105D0F4660F33
:10246000771FFB01EC5DFE4F2081318189E090E018
:1024700014C06430710568F4FB01EE0FFF1FE45EC9
:10248000FE4F20813181FB01E85EFE4F808190E0AC
:1024900004C080E090E020E030E0FA013183208346
:1024A000089584E089BD86E089BD09B400FEFDCFB2
:1024B0008091D8008F7D8093D8008091E000826069
:1024C0008093E0008091E00081FDFCCF0895982F7B
:1024D000953068F59093E900981739F07091EC0009
:1024E0002091ED005091F00003C0242F762F50E092
:1024F00021FD02C09F5FECCF3091EB003E7F309317
:10250000EB003091ED003D7F3093ED003091EB001A
:1025100031603093EB007093EC002093ED0050930A
:10252000F0002091EE0027FDE5CF80E008958F7048
:102530008093E90081E0089580917D0387FF11C0B9
:102540008091E80082FD05C080917C038111F8CF65
:1025500011C08091E8008B770BC080917C038823A9
:1025600049F08091E80080FFF8CF8091E8008E77F5
:102570008093E80008952091E4003091E50095E60D
:102580004091EC00842F817040FF23C08091E800CF
:1025900080FD1DC080917C03882399F0853099F0DF
:1025A0008091EB0085FD11C04091E4005091E50061
:1025B0002417350729F3915011F09A01E1CF84E0F7
:1025C000089582E0089583E0089581E0089580E011
:1025D00008954091E80042FFDDCF0895CF92DF9249
:1025E000EF92FF920F931F93CF93DF93EC018B0138
:1025F0007A010E94BB12811135C0E114F10439F057
:10260000F70180819181081B190BC80FD91FC12CBC
:10261000D12C0115110529F18091E80085FD18C024
:102620008091E8008E778093E8000E946216E114A2
:10263000F10449F0F70180819181C80ED91ED18241
:10264000C08285E00FC00E94BB12882311F30AC02C
:1026500089918093F10001501109FFEFCF1ADF0A31
:10266000D8CF80E0DF91CF911F910F91FF90EF9035
:10267000DF90CF9008952091830330918403261733
:10268000370748F06115710539F42091E8002E777D
:102690002093E80001C0B901FC0120E0611571053B
:1026A00061F180917C038823D9F18530D9F1809143
:1026B000E80083FD39C08091E80082FD2BC0809145
:1026C000E80080FFEBCF8091F20090E0611571058A
:1026D00051F08830910538F421912093F100615038
:1026E00071090196F3CF21E0089709F020E080916D
:1026F000E8008E778093E800D1CF2111D2CF0AC0B5
:1027000080917C03882361F0853061F08091E8003E
:1027100083FD0AC08091E80082FFF2CF80E0089537
:1027200082E0089583E0089581E008952091830375
:10273000309184032617370748F06115710539F485
:102740002091E8002E772093E80001C0B901FC0138
:1027500020E06115710579F180917C03882309F4EB
:102760003DC0853009F43CC08091E80083FD3AC04B
:102770008091E80082FD2CC08091E80080FFE9CFC5
:102780008091F20090E06115710559F08830910553
:1027900040F424912093F100319661507109019623
:1027A000F2CF21E0089709F020E08091E8008E77D1
:1027B0008093E800CECF2111CFCF0AC080917C0357
:1027C000882361F0853061F08091E80083FD0AC0C4
:1027D0008091E80082FFF2CF80E0089582E00895C2
:1027E00083E0089581E008951F93CF93DF93CDB7E1
:1027F000DEB7AA970FB6F894DEBF0FBECDBFEDE7E8
:10280000F3E08091F100819323E0E538F207C9F706
:102810000E9466108091E80083FF2EC180917D03A5
:1028200090917E03492F50E04A30510508F024C1B1
:10283000FA01EA5EFE4F0C94B525803821F082380B
:1028400009F01AC108C08091790390917A03992305
:1028500089F082600FC0809181038F70853008F00D
:102860000BC18093E9008091EB0085FB882780F9FC
:102870001092E9009091E800977F9093E800809390
:10288000F1001092F100D1C0282F2D7F09F0F4C083
:10289000882319F0823061F0EFC080917F0381308E
:1028A00009F0EAC0933009F080E080937A032EC0EB
:1028B00080917F0381112AC0809181038F702FEF57
:1028C000280F243008F0D8C08093E9002091EB0055
:1028D00020FF1CC0933021F48091EB00806214C073
:1028E0009091EB0090619093EB0021E030E0A90122
:1028F00002C0440F551F8A95E2F74093EA001092F8
:10290000EA008091EB0088608093EB001092E90070
:102910008091E800877F8093E8000E949C12ACC001
:102920008111AAC010917F031F778091E300807806
:10293000812B8093E3008091E800877F8093E800FB
:102940000E949C128091E80080FFFCCF8091E30000
:1029500080688093E300111102C082E001C083E02F
:1029600080937C0389C08058823008F085C08091B4
:102970007F03909180038C3D53E0950779F583E0C8
:102980008A838AE289834FB7F894DE01139620E0A8
:102990003EE051E2E32FF0E050935700E49120FF36
:1029A00003C0E295EF703F5FEF708E2F90E0EA304A
:1029B00010F0C79601C0C0968D939D932F5F243170
:1029C00049F74FBF8091E800877F8093E8006AE273
:1029D00070E0CE0101960E943B1316C06091810306
:1029E00070918203AE014F5F5F4F0E94FB11BC01EB
:1029F000892B09F441C09091E800977F9093E800FB
:102A000089819A810E9496138091E8008B77809348
:102A1000E80032C0803881F58091E800877F80939C
:102A2000E800809178038093F1008091E8008E7730
:102A300072CF811121C080917F03909180039927EB
:102A40000297D4F48091E800877F8093E80080911A
:102A50007F03809378030E949C12809178038111F8
:102A600006C08091E30087FD02C081E001C084E0E0
:102A700080937C030E9452108091E80083FF0AC07B
:102A80008091E800877F8093E8008091EB0080626E
:102A90008093EB00AA960FB6F894DEBF0FBECDBFB1
:102AA000DF91CF911F9108950E94B1150E94B41536
:102AB000E0EEF0E0808181608083E8EDF0E08081ED
:102AC0008F77808319BCE3E6F0E0808181608083AA
:102AD00010927B0308950E94B1150E94B415809155
:102AE000D8008F778093D8008091D8008068809339
:102AF000D8008091D8008F7D8093D80084E089BD74
:102B000086E089BD09B400FEFDCF10927C031092CF
:102B1000780310927A031092790342E060E080E03B
:102B20000E9467128091E1008E7F8093E100809186
:102B3000E20081608093E2008091E20088608093EF
:102B4000E2008091E0008E7F8093E0000895E3E64C
:102B5000F0E080818E7F808381E080937B030C9402
:102B60006B151092E20008951092E10008951F92F3
:102B70000F920FB60F9211242F933F934F935F93B1
:102B80006F937F938F939F93AF93BF93EF93FF9335
:102B90008091E10082FF0BC08091E20082FF07C0BC
:102BA0008091E1008B7F8093E1000E94611680910B
:102BB000E10080FF19C08091E20080FF15C0809184
:102BC000E2008E7F8093E2008091E200806180933A
:102BD000E2008091D80080628093D80019BC85E023
:102BE00080937C030E9422118091E10084FF30C019
:102BF0008091E20084FF2CC084E089BD86E089BD1D
:102C000009B400FEFDCF8091D8008F7D8093D8005D
:102C10008091E1008F7E8093E1008091E2008F7EC1
:102C20008093E2008091E20081608093E2008091D5
:102C30007803882311F084E007C08091E30087FDCA
:102C400002C081E001C083E080937C030E943711C1
:102C50008091E10083FF24C08091E20083FF20C0C7
:102C60008091E100877F8093E10082E080937C0384
:102C7000109278038091E1008E7F8093E100809133
:102C8000E2008E7F8093E2008091E2008061809379
:102C9000E20042E060E080E00E9467120E94511072
:102CA000FF91EF91BF91AF919F918F917F916F9124
:102CB0005F914F913F912F910F900FBE0F901F90FA
:102CC00018950895CF9380917C038823A1F0C0913B
:102CD000E900CF709091EC00892F817090FD80E821
:102CE000C82B1092E9008091E80083FD0E94F41344
:102CF000CF70C093E900CF91089590937D028093A7
:102D00007C020895E0917C02F0917D02309721F0E1
:102D10000190F081E02D099480E00895EF92FF92F8
:102D20000F931F93CF93DF93E0917C02F0917D028C
:102D30003097B1F18C010280F381E02D09958091EB
:102D4000720382FF2DC080FF04C087E197E00E94DC
:102D5000AB05E80110E281E1E82E87E0F82E8091D2
:102D6000720380FF0BC088811F928F93FF92EF92B6
:102D70000E9444060F900F900F900F9011502196D3
:102D80001111EDCF8091720380FF0AC08FE097E0B0
:102D9000DF91CF911F910F91FF90EF900C94AB05B5
:102DA000DF91CF911F910F91FF90EF900895CF93F6
:102DB000DF9320917A0230917B022817390709F1BD
:102DC00090937B0280937A02E0917C02F0917D02E5
:102DD0003097B9F0EC010680F781E02D09958091DC
:102DE000720382FF0EC080FF0CC0DF93CF9381E09F
:102DF00097E09F938F930E9444060F900F900F903F
:102E00000F90DF91CF910895CF93DF9320917802B7
:102E1000309179022817390709F19093790280934C
:102E20007802E0917C02F0917D023097B9F0EC01DC
:102E30000084F185E02D09958091720382FF0EC018
:102E400080FF0CC0DF93CF9381EF96E09F938F9329
:102E50000E9444060F900F900F900F90DF91CF913A
:102E600008950C94DA170E9478230C946B0ABF9291
:102E7000CF92DF92EF92FF920F931F93CF93DF9346
:102E800000D000D01F92CDB7DEB70E94950A0FE7A1
:102E900012E0F12C8F2D0E94780AB82EF801C08024
:102EA000C82639F4F3940F5F1F4FF0E1FF12F2CF01
:102EB00030C08091720381FD0E94DB17D12CEE247B
:102EC000E3948C2D8E21F9F0D982FA8291E08B2D3A
:102ED0008E2109F490E09B830E9481238160782FEA
:102EE0009D838C8349815A816B818D810E94111849
:102EF00049815A816B817C818D810E941923F8015F
:102F000080818E258083D394EE0CF8E0DF12D9CF38
:102F1000C9CF8FEF89838A831B820E9481238160BE
:102F2000782F9D838C8349815A816B818D810E948A
:102F300011180E9418230E94821690917E02891710
:102F400041F10E94821680937E029091720392FF5B
:102F50000EC090FF0CC01F928F9382E297E09F9368
:102F60008F930E9444060F900F900F900F908091C6
:102F70007E020F900F900F900F900F90DF91CF91E6
:102F80001F910F91FF90EF90DF90CF90BF900C9426
:102F90002A230F900F900F900F900F90DF91CF91F9
:102FA0001F910F91FF90EF90DF90CF90BF90089509
:102FB0000C94860A0895EF92FF920F931F93CF937C
:102FC000DF938BE397E00E94AB05C0E0D0E08CE29A
:102FD000E82E81E0F82E0DE217E08C2F0E94780A8F
:102FE0000E940623FF92EF921F928F93DF93CF935D
:102FF0001F930F930E94440621968DB79EB70896A3
:103000000FB6F8949EBF0FBE8DBFC031D10529F712
:10301000DF91CF911F910F91FF90EF900895089548
:103020000895CF93DF93CDB7DEB72B970FB6F89403
:10303000DEBF0FBECDBF942F4F83252F58876987E2
:103040007A878B874A855B85452B31F02F3F31F49A
:1030500081E09F3F19F403C081E001C080E080FD62
:1030600007C04F81588569857A858B850E94192311
:10307000DE01119686E0FD0111928A95E9F785E05F
:10308000FE01379601900D928A95E1F749815A81A8
:103090006B817C818D819E810E94081F2B960FB6CB
:1030A000F894DEBF0FBECDBFDF91CF910895CF93CF
:1030B000882309F465C0C82F8CEF8C0F813A20F06B
:1030C00080E58C0F8E3248F48C2F0E94512581119F
:1030D00057C08C2F0E94FC210CC080E28C0F8830DE
:1030E00058F4C77081E001C0880FCA95EAF70E94C2
:1030F000A122CF910C94DB228BE58C0F833078F4E6
:10310000C53A29F0C63A31F083E890E005C081E87D
:1031100090E002C082E890E0CF910C94D71688E549
:103120008C0F853168F5C83A89F0C93A91F0CA3AEE
:1031300099F0CB3AA1F0CC3AA9F0CD3AB1F0CE3A21
:10314000B9F0CF3AC1F080E090E017C082EE90E095
:1031500014C089EE90E011C08AEE90E00EC085EBBD
:1031600090E00BC086EB90E008C083EB90E005C0D8
:1031700084EB90E002C087EB90E0CF910C940417B1
:10318000CF910895882349F19CEF980F913A20F050
:1031900090E5980F9E3218F40E944C220DC090E2E8
:1031A000980F983058F4877091E001C0990F8A9574
:1031B000EAF7892F0E94A7220C94DB229BE5980F47
:1031C000933020F480E090E00C94D716885A853133
:1031D00020F480E090E00C9404170895882321F0F7
:1031E0000E94A1220C94DB220895882321F00E94E2
:1031F000A7220C94DB2208950E94C1220E949022F3
:103200000E94DB2280E090E00E94D71680E090E0F0
:103210000C9404170E94B1220C94FC18CF92DF92F8
:10322000EF92FF920F931F93CF93DF9300D000D0C4
:103230001F92CDB7DEB76C010E942C238111EAC228
:1032400085E0F601DE01119601900D928A95E1F775
:10325000F60140815181238134812115310531F0FE
:103260005F3F31F481E04F3F19F403C081E001C0BA
:1032700080E080FDCFC2F601F280E580E2948FE02D
:10328000E82249835A83FB82722F3D832C836F2D62
:103290008D810E9471218C010E9470210E9460200A
:1032A000E12FE295EF708E2F90E0FC01E05EFE4F83
:1032B0000C94B525812F807F1F70882311F0129503
:1032C000107FFF2049F0112309F43BC2812F0E9497
:1032D000B4220E94DB2235C2802F0E94C218112323
:1032E00009F498C2812F0E94BA220F900F900F907C
:1032F0000F900F90DF91CF911F910F91FF90EF9062
:10330000DF90CF900C94DB22812F807F1F70803262
:1033100011F01295107F002319F0013009F12BC034
:10332000FF20A9F0EE2059F1F1E0812FEF1228C023
:103330000F900F900F900F900F90DF91CF911F91F2
:103340000F91FF90EF90DF90CF900C94C422EE206D
:1033500021F021E0E21609F45DC20E94C7222DC0CF
:10336000FF20E9F085E08E1508F454C20E949E22E9
:10337000812329F022C0FF20F1F0E11015C0812F38
:103380000F900F900F900F900F90DF91CF911F91A2
:103390000F91FF90EF90DF90CF900C94EE1894E097
:1033A0009E1508F437C209C0F601858180FFC9C1A6
:1033B0008F708583E4CFE110D7C1812F4AC1812F5F
:1033C00086958695837019F08130B9F023C2FF206D
:1033D00019F0C801937002C080E090E00F900F9048
:1033E0000F900F900F90DF91CF911F910F91FF9051
:1033F000EF90DF90CF900C94D716FF2019F0C80102
:10340000937002C080E090E00F900F900F900F90AB
:103410000F90DF91CF911F910F91FF90EF90DF9070
:10342000CF900C940417812F837009F070C0F110B5
:10343000F1C1202F229526952770220F220F602F91
:103440006F70862F90E0A0E0B0E06C017D01022E4D
:1034500004C0CC0CDD1CEE1CFF1C0A94D2F704FF48
:1034600012C08FE090E0A0E0B0E004C0880F991F88
:10347000AA1FBB1F2A95D2F7BC01CD01609570959C
:103480008095909503C060E070E0CB01169516958D
:1034900013701230B1F040F56C297D298E299F29D7
:1034A000113031F10F900F900F900F900F90DF912E
:1034B000CF911F910F91FF90EF90DF90CF900C94E0
:1034C00085206C297D298E299F290F900F900F90C0
:1034D0000F900F90DF91CF911F910F91FF90EF9080
:1034E000DF90CF900C949F200E948520C701B601E9
:1034F0000F900F900F900F900F90DF91CF911F9131
:103500000F91FF90EF90DF90CF900C946B20FF20F5
:1035100019F0812F817001C08695882309F47AC142
:10352000202F229526952770220F220F602F6F7073
:10353000862F90E0A0E0B0E06C017D01022E04C077
:10354000CC0CDD1CEE1CFF1C0A94D2F704FF12C049
:103550008FE090E0A0E0B0E004C0880F991FAA1FA0
:10356000BB1F2A95D2F7BC01CD016095709580955F
:10357000909503C060E070E0CB011695169513702E
:103580001230B1F040F56C297D298E299F29113028
:1035900031F10F900F900F900F900F90DF91CF911E
:1035A0001F910F91FF90EF90DF90CF900C944C21E2
:1035B0006C297D298E299F290F900F900F900F90D5
:1035C0000F90DF91CF911F910F91FF90EF90DF90BF
:1035D000CF900C945E210E944C21C701B6010F9040
:1035E0000F900F900F900F90DF91CF911F910F913F
:1035F000FF90EF90DF90CF900C943A21003FC1F103
:1036000028F480E4800F803250F096C0023F09F425
:103610005EC008F449C0033F09F46CC08DC0F02FB0
:10362000F071EF2E812F8F71FF2051F00E94D32077
:10363000802FEE2019F08295807FA2CE8F70A0CED1
:103640000E94F420802FEE2019F08295807F01C027
:103650008F700F900F900F900F900F90DF91CF9180
:103660001F910F91FF90EF90DF90CF900C94F51881
:10367000FF20A9F024E02E1508F4CCC0812F8F7113
:103680000F900F900F900F900F90DF91CF911F919F
:103690000F91FF90EF90DF90CF900C94192185E06F
:1036A0008E1508F4B7C0EACFFF2099F0812F8F71F3
:1036B0000F900F900F900F900F90DF91CF911F916F
:1036C0000F91FF90EF90DF90CF900C94D320FF20CC
:1036D00069F3812F8F710F900F900F900F900F90C3
:1036E000DF91CF911F910F91FF90EF90DF90CF90DE
:1036F0000C94F420FF2089F0812F8F710F900F9090
:103700000F900F900F90DF91CF911F910F91FF902D
:10371000EF90DF90CF900C94BE200F900F900F9001
:103720000F900F90DF91CF911F910F91FF90EF902D
:10373000DF90CF900C94B920FF2099F0EE2009F48F
:10374000B5CF802F0F900F900F900F900F90DF91BB
:10375000CF911F910F91FF90EF90DF90CF900C943D
:103760005718EE2009F4B5CF802F0F900F900F90CF
:103770000F900F90DF91CF911F910F91FF90EF90DD
:10378000DF90CF900C94C218412F4F70602FC6016C
:103790000E94EC230F900F900F900F900F90DF91ED
:1037A000CF911F910F91FF90EF90DF90CF900C94ED
:1037B000BB1F01112FC0FF2069F10E940A199FEF62
:1037C000E0E7F2E09150E040F040E1F700C0000097
:1037D0000F900F900F900F900F90DF91CF911F914E
:1037E0000F91FF90EF90DF90CF900C94CD23412F5D
:1037F0004F70602FC6010F900F900F900F900F9099
:10380000DF91CF911F910F91FF90EF90DF90CF90BC
:103810000C94EF230F900F900F900F900F90DF916B
:10382000CF911F910F91FF90EF90DF90CF9008956F
:103830001F93CF93DF9300D000D01F92CDB7DEB798
:10384000942F4983252F5A836B837C838D834C81EE
:103850005D81452B31F02F3F31F481E09F3F19F41A
:1038600003C081E001C080E0182F117080FD31C0DD
:1038700049815A816B817C818D810E947121292F20
:1038800022952F702C3030F42A30A0F422502230B0
:1038900030F022C02C30C9F02F30B9F01DC0853A6D
:1038A00028F48430C0F4823028F415C090E2980FD8
:1038B000983088F0883E30F4803E68F48450813A35
:1038C00058F409C0803F41F406C093FB112710F95A
:1038D00003C010E001C011E0812F0F900F900F90F6
:1038E0000F900F90DF91CF911F910895CF93DF93A9
:1038F00000D000D01F92CDB7DEB70F900F900F9081
:103900000F900F90DF91CF910895CF93DF9300D068
:1039100000D000D0CDB7DEB726960FB6F894DEBF44
:103920000FBECDBFDF91CF910895CF93DF93C091AC
:103930008F0280919002C817A1F0D0E0CE0166E01E
:1039400070E00E94A425FC01EF56FD4F408151819B
:1039500062817381848195810E94851C2196C77044
:10396000E8CFDF91CF9108954091C1025091C202FA
:103970006091C3027091C4028091C5029091C60209
:103980000C94851C1F93CF93DF938091C602829580
:103990008F7009F05CC08091C302882309F457C07E
:1039A00020918F0210919002C091C102D091C20269
:1039B000A091C402B091C50281E0CF3F09F080E040
:1039C000482F211709F443C0109721F0DF3F21F061
:1039D00080E003C081E001C0842F30E080FD33C06F
:1039E000C90166E070E00E94A425FC01EF56FD4F7E
:1039F00081818D1328C080818C1325C08281811123
:103A000022C0838194818A1B9B0B883C9105D8F44A
:103A10008091C6028F7080618093C602C90166E002
:103A200070E00E94A425FC01EA56FD4F90819F7032
:103A30009061908381EC92E00E940E19DF91CF910A
:103A40001F910C94951C2F5F3F4F2770BACFDF91C9
:103A5000CF911F9108959F92AF92BF92CF92DF9224
:103A6000EF92FF920F931F93CF93DF93CDB7DEB703
:103A700061970FB6F894DEBF0FBECDBF8C0185E015
:103A8000F801DE011D9601900D928A95E1F7F8018B
:103A900040812181F280C380D4809091C102309115
:103AA000C2026091C4027091C5026115710531F0C6
:103AB0003F3F31F481E09F3F19F403C081E001C032
:103AC00080E0F82FF1709F2E80FD59C181ECA82E67
:103AD00082E0B82EE090C302F601E61BF70BEE2061
:103AE00009F4EDC08091C602582F507FE83CF105E3
:103AF00008F0A7C0511156C0231313C0491311C0B9
:103B0000EF2CF1100EC08F7080618093C6020E946E
:103B1000B41CC5010E940E198091C602F80185836C
:103B200064C1C114D10431F02F3F31F481E04F3F23
:103B300019F403C081E001C080E080FD03C081E092
:103B40008F2502C080E090E0F82FF170EF2E80FF0B
:103B50001FC0E0918F0230919002E31709F421C158
:103B6000F0E0CF0166E070E00E94A425DC01AF56D2
:103B7000BD4F11968C911197281307C08C91481353
:103B800004C012968C91F81203C03196E770E5CF0D
:103B9000EF2CFF2009F429C18091C6028160809337
:103BA000C60264C0231306C0491304C0F11002C04A
:103BB000F801A9C04D872E87FF867C2DD98AC88A37
:103BC000522F6F2D89890E94181C8823A1F1FF2094
:103BD00091F12091C602822F82958F7090E002971A
:103BE00074F08091C1029091C20298878F831986E8
:103BF000DB86CA862C87CE0107960E940E1986E0C6
:103C0000F801A1ECB2E001900D928A95E1F70E94D3
:103C1000C21C0E94B41C12C0231751F14D872E877D
:103C2000FF867C2DD98AC88A522F6F2D89890E94E0
:103C3000181C81112CC0C8010E940E19EE24E394B7
:103C4000D4C05111E9CF7C2DD98AC88A522F6F2D4B
:103C500089890E94761C81EC92E00E940E1986E010
:103C6000F50111928A95E9F70E94B41CE12CBDC0C0
:103C70004913D4CFF110D2CFF8018583C8010E9437
:103C80000E1986E0F50111928A95E9F7AEC0FF2082
:103C900091F22091C602822F82958F7090E0029758
:103CA0000CF4ADCF8091C1029091C2029A838983B6
:103CB0001B82DD82CC822E83CE0101969ECFE83C12
:103CC000F10508F04CC0EF2CFF2009F4B4CF23130A
:103CD00030C049132EC02091C60220FD21C0822F82
:103CE00082958F70482F50E041155105C9F0F801B9
:103CF00025834F30510541F08F5F982F9295907F2B
:103D0000822F8F70892B8583C8010E940E1986E04F
:103D1000F801A1ECB2E001900D928A95E1F72CC078
:103D200086E0F801A1ECB2E001900D928A95E1F7EE
:103D30005CC04D872E87FF867C2DD98AC88A522F7A
:103D40006F2D89890E94181C811159CF8091C6025C
:103D500081608093C602C8010E940E1946C07C2D66
:103D6000D98AC88A522F6F2D89890E94761C86E0D5
:103D7000F50111928A95E9F70E94B41C36C0FF2024
:103D800009F459CF4D872E87FF867C2DD98AC88AA2
:103D9000522F6F2D89890E94181C882309F44BCF5C
:103DA0002ECF7C2DD98AC88A522F6F2D89890E94E7
:103DB0007121292F22952F70223028F49F7039F01D
:103DC000811105C00BC0243028F49F7049F4805E37
:103DD000883020F0C8010E940E199E2CE92C05C0E5
:103DE000F8019581907F99F7F9CF8E2D61960FB6E6
:103DF000F894DEBF0FBECDBFDF91CF911F910F9121
:103E0000FF90EF90DF90CF90BF90AF909F9008957C
:103E1000CF93DF93CDB7DEB72C970FB6F894DEBF04
:103E20000FBECDBF4F83588769877A878B879C8762
:103E3000CE0107960E942B1D8823D1F09F81888593
:103E40002A853B85232B31F08F3F31F481E09F3F62
:103E500019F403C081E001C080E080FD6FC04F8194
:103E6000588569857A858B859C850E94851C66C0EE
:103E700086E0FE013796DE01119601900D928A953B
:103E8000E1F7FF81E8856A857B856115710531F071
:103E9000EF3F31F481E0FF3F19F403C081E001C03E
:103EA00080E080FD4BC08091900290E09C012F5FEC
:103EB0003F4F2770332740918F0250E0241735077A
:103EC00009F443C0F983EA837D836C8366E070E084
:103ED0000E94A425DC01AF56BD4F96E0FE0131964D
:103EE00001900D929A95E1F7209390020E94951C03
:103EF00025C090E066E070E00E94A4258F569D4F9B
:103F00000E942B1D882371F180918F0290E066E062
:103F100070E00E94A425FC01EF56FD4F40815181C5
:103F200062817381848195810E94851C80918F02BA
:103F300090E001968770992780938F0280918F027D
:103F4000909190028913D5CF0DC00E940A1910924A
:103F5000900210928F02E1ECF2E086E0DF011D9208
:103F60008A95E9F72C960FB6F894DEBF0FBECDBF49
:103F7000DF91CF910895DF92EF92FF920F931F93FD
:103F8000CF93DF93FC01892B09F488C0E12CF12C3D
:103F9000DD24D394EF0121968491853709F460C024
:103FA00058F4843708F04EC0843008F068C081307F
:103FB000D1F0823071F172C0883709F45BC050F4DF
:103FC000863709F453C0873709F068C08E2D0E94E8
:103FD000AE2252C09CE7980F903708F05FC08F77F1
:103FE0000E94C2184EC08F010E5F1F4FFE018491C8
:103FF00090E2980F983050F48770FD2D01C0FF0FAC
:104000008A95EAF78F2F0E94B42215C00E94571894
:1040100014C08F010E5F1F4FFE01849190E2980F34
:10402000983068F48770FD2D01C0FF0F8A95EAF77C
:104030008F2F0E94BA220E94DB22E80122C00E9438
:10404000C218FBCFCF010296FE01C491CC2361F0D0
:10405000EFE9FFE03197F1F700C00000C150F6CF63
:10406000CF010296FE01F490EC010BC00E949E224B
:10407000E82E07C00E94B1220E94DB2202C00E94EB
:1040800057188F2D882341F0EFE9FFE03197F1F7C2
:1040900000C000008150F6CFFE017CCFDF91CF91B0
:1040A0001F910F91FF90EF90DF9008956093470369
:1040B000709348038093490390934A030C942923F7
:1040C000089560934B0370934C0380934D0390933A
:1040D0004E030C9428230F931F9300914B031091D0
:1040E0004C0320914D0330914E03602B712B822B9A
:1040F000932B60934B0370934C0380934D039093E9
:104100004E031F910F910C9428230F931F9300913E
:104110004B0310914C0320914D0330914E036023CB
:1041200071238223932360934B0370934C038093FA
:104130004D0390934E031F910F910C9428230F93DE
:104140001F9300914B0310914C0320914D0330912C
:104150004E03602771278227932760934B03709348
:104160004C0380934D0390934E031F910F910C9439
:10417000282360E070E0CB010C9456200F931F932E
:1041800041E050E060E070E08A019B0104C0000F54
:10419000111F221F331F8A95D2F7C901B8011F9141
:1041A0000F910C9456200F931F9341E050E060E074
:1041B00070E004C0440F551F661F771F8A95D2F721
:1041C0008091470390914803A0914903B0914A031D
:1041D0008A019B01082B192B2A2B3B2BC901B80103
:1041E0001F910F910C9456200F931F9341E050E0C4
:1041F00060E070E004C0440F551F661F771F8A956A
:10420000D2F74095509560957095809147039091B5
:104210004803A0914903B0914A038A019B010823F6
:1042200019232A233B23C901B8011F910F910C9434
:1042300056200F931F9341E050E060E070E004C00F
:10424000440F551F661F771F8A95D2F78091470349
:1042500090914803A0914903B0914A038A019B01C0
:10426000082719272A273B27C901B8011F910F9159
:104270000C9456200F931F9300914703109148030D
:104280002091490330914A03602B712B822B932B91
:104290001F910F910C9456200F931F930091470389
:1042A000109148032091490330914A036023712300
:1042B000822393231F910F910C9456200F931F93E9
:1042C00000914703109148032091490330914A031C
:1042D00060277127822793271F910F910C945620F6
:1042E00008958F929F92AF92BF92DF92EF92FF92CA
:1042F0000F931F93CF93DF9300D000D01F92CDB7C1
:10430000DEB76B837C838D838A018C819D81892BB1
:1043100031F01F3F31F481E04F3F19F403C081E0D9
:1043200001C080E080FF03C080E090E054C08B813A
:10433000882309F43DC08090470390904803A090E3
:104340004903B0904A0380914B0390914C03A09194
:104350004D03B0914E03882A992AAA2ABB2A2FE13D
:10436000E22EF12CD501C4010E2C04C0B695A79500
:10437000979587950A94D2F780FD06C081E0E81AE8
:10438000F10880F7D12C07C0DE2CB8018E2D0E94D9
:104390004D06019799F3E12FF0E093E0EE0FFF1F38
:1043A0009A95E1F7E953FD4FE00FF11DD0820CC063
:1043B000E12FF0E083E0EE0FFF1F8A95E1F7E9536C
:1043C000FD4FE00FF11DD08009831A8369817A8146
:1043D0008D2D0E944D060F900F900F900F900F9013
:1043E000DF91CF911F910F91FF90EF90DF90BF90E1
:1043F000AF909F908F90089590911401992379F137
:1044000090911501992359F1982F96959695969527
:104410009F31A1F0E0911601F0911701E90FF11D14
:10442000877021E030E0A90102C0440F551F8A9532
:10443000E2F7CA019181892B8183089590917203DB
:1044400090FF29C01F928F9387E697E09F938F93E9
:104450000E9444060F900F900F900F9008952091A6
:10446000160130911701F90132969FEF40E051910A
:10447000851789F09F3F19F4511101C0942F4F5FA8
:104480004E31A9F79F3F39F0F901E90FF11D97FD72
:10449000FA9582830895089590911401992381F1EA
:1044A00090911501992361F1982F9695969596957F
:1044B0009F31A9F0E0911601F0911701E90FF11D6C
:1044C000877021E030E0A90102C0440F551F8A9592
:1044D000E2F7CA01809591818923818308959091A3
:1044E000720390FF1CC01F928F9389E497E09F9303
:1044F0008F930E9444060F900F900F900F90089595
:10450000E0911601F09117019F01225E3F4F9281C9
:10451000891301C012823196E217F307C1F708959B
:1045200081E090E0E0911601F0911701E80FF91F8A
:104530001082019680329105A9F708958091710348
:10454000089590917103892B80937103089580954C
:10455000909171038923809371030895809371036F
:10456000089510927103089590917003892B8093A0
:104570007003089580959091700389238093700350
:10458000089510927003089580934F030895109238
:104590004F0308958091160190911701FC01319607
:1045A0009C01205E3F4F80E0919191118F5FE21757
:1045B000F307D1F70895E0911601F091170180916A
:1045C00071038083E0911601F09117019081809131
:1045D0007003892B808380914F03882361F0E091E1
:1045E0001601F09117019081892B80830E94CA22C5
:1045F000811110924F0380911601909117010C9434
:104600008E16909335018093340108958295982FEA
:104610009373292F220F220F982F9C7C96959695A5
:10462000922B892F8575880F9A7A9695892B0895F4
:104630000895CF93DF9300D000D01F92CDB7DEB79F
:104640000F900F900F900F900F90DF91CF910895E2
:10465000089508950C94D81780E0089583B7817F5A
:104660008C6083BF83B7816083BF7894889583B75C
:104670008E7F83BF0895CF930E940F180E94950AE2
:104680000E941018C0E08C2F0E94780A811104C08B
:10469000CF5FC031C1F701C081E0CF9108950E9482
:1046A0007E0A0C940A191F920F920FB60F921124D2
:1046B0008F939F93AF93BF938091730390917403F3
:1046C000A0917503B09176034196A11DB11D809311
:1046D000730390937403A0937503B0937603BF9113
:1046E000AF919F918F910F900FBE0F901F901895D3
:1046F00082E084BD93E095BD9AEF97BD80936E00F4
:1047000008952FB7F8948091730390917403A0914A
:104710007503B09176032FBF08952FB7F894609179
:1047200073037091740380917503909176032FBF8A
:1047300008959C014FB7F89480917303909174038E
:10474000A0917503B09176034FBF821B930B089520
:104750001F920F920FB60F9211248F939F93AF93D6
:10476000BF938091730390917403A0917503B091EE
:1047700076030196A11DB11D80937303909374037A
:10478000A0937503B0937603BF91AF919F918F91E2
:104790000F900FBE0F901F9018950E945415F8941B
:1047A00087E797E7909301088093000887E090EBF4
:1047B000DC018093850390938603A0938703B093D5
:1047C00088039CE088E10FB6F894A8958093600078
:1047D0000FBE90936000FFCF80E090E008950895B1
:1047E000CF93C82F1F928F938BE897E09F938F935F
:1047F0000E94440681E090E0A0E0B0E0BC01CD0161
:1048000004C0660F771F881F991FCA95D2F70E94B0
:1048100061200F900F900F900F90CF910C940A1978
:10482000CF938732A8F58E3108F02BC1803109F47F
:104830009FC0F8F4873009F464C0A8F4863009F00A
:1048400024C180917203817F8E7F8093720380E9FF
:1048500097E00E94AB0583E79AE00E94AB0581E0F8
:10486000809377034CC08B30F1F18E3009F46CC02B
:104870000CC1863109F4B0C020F4813109F4EDC0D7
:1048800004C1893109F491C08B3109F449C0FDC0DC
:10489000883349F150F4893209F4F1C0853309F4C1
:1048A000EEC0873209F0F1C0EAC0833409F4E7C0F2
:1048B00028F48A3308F4E9C08953E4C0883409F045
:1048C000E4C00E940A1982E69AE00E94AB052FEF2D
:1048D00083ED90E3215080409040E1F700C000005C
:1048E0000E94CD230CC08BEA97E05CC089E49AE07B
:1048F0000E94AB0580917203816080937203C1E0D6
:10490000C9C080917203C82FC17080FFEFCF85E5C9
:104910009AE00E94AB0580917203817F8E7F3DC03B
:104920009091720391FBCC27C0F981E0C827892FB1
:10493000C0FB81F980937203CC2319F08CE39AE0D9
:1049400027C08EE29AE02EC09091720392FBCC2792
:10495000C0F981E0C827892FC0FB82F980937203D8
:10496000CC2319F08FE19AE013C08FE09AE01AC0CF
:104970009091720393FBCC27C0F981E0C827892F5F
:10498000C0FB83F980937203CC2351F083E09AE05B
:104990000E94AB05809172038160809372037AC09C
:1049A00086EF99E00E94AB05AACF87EE99E00E94BE
:1049B000AB0581EC99E00E94AB0589E799E00E9484
:1049C000AB0581E599E00E94AB0585E099E00E9486
:1049D000AB0589ED98E0E6CF8BEC98E00E94AB0543
:1049E0000E9482161F928F9381EB98E09F938F9382
:1049F0000E944406809114011F928F938AE998E0E7
:104A00009F938F930E944406809177021F928F9309
:104A100087E898E09F938F930E9444068091150148
:104A20001F928F9384E798E09F938F930E94440690
:104A30000E948D239F938F937F936F938DE598E0D2
:104A40009F938F930E9444068DB79EB746960FB6EC
:104A5000F8949EBF0FBE8DBF52CF0E940A19C0911D
:104A6000150181E0C827C0931501CC2329F083E507
:104A700098E00E94AB050EC088E498E093CF80E0F8
:104A800001C08D510E94F0233ACF86E498E00E9445
:104A9000AB05C0E08C2FCF91089580E008950C9471
:104AA0004D25CF93C82F80917703882319F081304B
:104AB00059F042C0E0911601F091170180818232D5
:104AC00061F08434D9F509C0E0911601F091170125
:104AD0008081823211F0843461F48C2F0E944F2542
:104AE000811104C08C2F0E94102424C081E090E02A
:104AF00021C08C2F0E944D2581111BC0C43189F02B
:104B000018F4CB3029F010C0C93259F0C83361F421
:104B100080E997E00E94AB0587E897E00E94AB052B
:104B200008C0109277030CC085E897E00E94AB059F
:104B300007C081E0817006C01092770380E002C058
:104B400080E0F8CFCF9108950024552704C0080EC7
:104B5000591F880F991F009729F076956795B8F32C
:104B60007105B9F7802D952F0895EE0FFF1F059061
:0A4B7000F491E02D0994F894FFCFB2
:104B7A000080FFFF0556010000FF8E0EFB0E910E0E
:104B8A00C60E920E0101500340362239B1067B0649
:104B9A0059062006AC05C505DE05FE05000008001D
:044BAA000400020001
:106800008800EA44E944E244040005000600070069
:10681000080009000A000B000C000D000E000F001C
:1068200010001100120013001400150016001700CC
:10683000180019001A001B001C001D001E001F007C
:10684000200021002200230024002500260027002C
:10685000280029002A002B002C002D002E002F00DC
:10686000300031003200330034003500360037008C
:10687000380039003A003B003C003D003E003F003C
:1068800040004100420043004400450046004700EC
:10689000480049004A004B004C004D004E004F009C
:1068A000500051005200530054005500560057004C
:1068B000580059005A005B005C005D005E005F00FC
:1068C0006000610062006300640065A185006700EC
:1068D000680069006A006B006C006D006E006F005C
:1068E0007000710072007300890087008A008B00BD
:1068F000E000E100E200E300E400E500E600E7007C
:106900000100010001000100EA4401000100E2442D
:106910000100010001000100460001004A004B0097
:10692000010001004700480001000100E9440100A6
:106930000100010001000100010001003A003B00DC
:106940003C003D003E003F0040004100420043004B
:10695000010035004C0039000100440045005200A0
:1069600049000100010050004F0029004D004E0079
:1069700051000100010001000100010001000100BF
:1069800001000100010001000100010001000100FF
:1069900001000100010001000100010001004D00A3
:1069A0004A004E004B0001000100010001000100FF
:1069B00001000100010001000100010001000100CF
:1069C00001000100010001000100010001000100BF
:1069D00001000100010001000100010001000100AF
:1069E0000100010001000100490001000100010057
:1069F000010001000100010001000100010001008F
:00000001FF
