:100000000C9457050C94B8050C9459080C94B80539
:100010000C94B8050C94B8050C94B8050C94B8056C
:100020000C94B8050C94B8050C9460150C94B805A4
:100030000C942A230C94B8050C94B8050C94B805BC
:100040000C94B8050C94B8050C94B8050C94B8053C
:100050000C94B8050C949A230C94B8050C94B8052C
:100060000C94B8050C94B8050C94B8050C94B8051C
:100070000C94B8050C94B8050C94B8050C94B8050C
:100080000C94B8050C94B8050C94B8050C94B805FC
:100090000C94B8050C94B8050C94B8050C94B805EC
:1000A0000C94B8050C94B8050C94B805FE09000A28
:1000B0000C0A0C0A0C0A0C0A0C0A0C0A020A040AA2
:1000C000060A0C0A0C0A000A0E0A0C0A0C0AC809D5
:1000D000FE090C0A0C0A040A0C0A0C0A0C0A0C0A87
:1000E0000C0A0C0A060AFE09EA090C0AEE090C0AB7
:1000F0000C0A0C0ACA09020A0C0A0C0AF8090C0AB2
:100100000C0A0C0ACC090A0A0C0AEC090C0A000AAF
:100110000C0A0C0AFC09F0090C0AF209040A0C0A80
:100120000C0A0C0AFA09F4090C0A0C0A0C0A0C0A4B
:100130000C0A0C0A0C0AF6090C0ACE090C0A0C0A65
:10014000020A0C0A0C0A0A0A0C0A0C0A0C0A0C0A0B
:100150000C0A0C0A0C0A0C0A0C0AD0090C0A0C0A2C
:100160000C0AF8090C0A0C0A0C0A0C0A0C0A0C0AF4
:100170000C0A0C0A0C0A0C0AD2090C0AD409D6097A
:100180000C0A0C0A0C0AD809DA09DC090C0ADE0987
:10019000E0090C0A0C0A0C0A080AE2090C0AE60932
:1001A000E409E8090C0A0C0A0C0A0C0A0A0A320AC9
:1001B000400A4C0A4C0A240A4C0A4C0A4C0A4C0AC3
:1001C0004C0A4C0A4C0A4C0A4C0A4C0A4C0A4C0A7F
:1001D0004C0A260A4C0A280A4C0A4C0A4C0A4C0AB9
:1001E000440A4C0A5B0A420A4C0A4C0A4C0A4C0A62
:1001F0004C0A4C0A4C0A4C0A4C0A4C0A4C0A4C0A4F
:100200004C0A1C0A380A2A0A3C0A4C0A2C0A4C0AD4
:10021000300A4C0A3A0A2E0A3E0A340A360A4C0AB6
:100220004C0A4C0A4C0A4C0A4C0A4C0A1E0A200A78
:10023000220A460A480A4C0A4C0A4C0A4A0AE70AA9
:10024000FD0A0B0B190B390B500B730B900B180C91
:10025000450CDC0C370D1D0D4C0D610D6B0D720D39
:10026000760D7D0DAE13D513CD14D513CD142114F9
:100270004414CD149B14AA14261926195019501988
:10028000AB19D61BD61BD61BDF19D61BCA1ACA1A26
:10029000901BD61BA51BC31B807B01484746293AF0
:1002A000687F0277762B353B6978796439141E3C78
:1002B0006A7A1D16041A1F3D6B061B070821203E93
:1002C0006C2C19091715223F6D11050B0A1C2340D0
:1002D0006E7E100D182425416F360E0C1227264213
:1002E0007037380F33132D43717534322F2E44720B
:1002F0007C7D283031744573515065524C4D2A49EC
:1003000000594F5C5F4E4A4B62635A5D5E605354C6
:1003100067585B66576155564842403E3C3A3B45FC
:100320006843413F3D2B357E697A790078141E7C05
:100330006A7B1D16041A1F7F6B061B070821204DC0
:100340006C2C19091715224A6D11050B0A1C234C38
:100350006E49100D182425516F360E0C1227264FAA
:100360007037380F33132D52717534502F2E4E7253
:10037000397D283065314B735464586776012A778C
:100380003259745C5F66024662635A5D5E6029534F
:1003900044575B565561470380291E1F20212223A5
:1003A000242526272D2E2A2B141A0815171C180C65
:1003B00012132F302878041607090A0B0D0E0F337D
:1003C000343579311D1B06190511103637387D5526
:1003D0007A2C393A3B3C3D3E3F4041424353475FD4
:1003E0006061565C5D5E57595A5B626346483244B1
:1003F00045677B7F650301025250514F68696A6B04
:100400006C6D6E6F7071725800494C754A4D734B2C
:100410004E767C777E7466547225303258200062A6
:10042000253034582000772530325820002143539E
:10043000335F4630210A00214353335F46305F4526
:100440005252210A00214353335F46305F4F5652C8
:10045000210A00214353335F5245414459210A0088
:10046000214353335F455252210A00214353335FE6
:100470004F5652210A00214353325F45305F4630C8
:10048000210A00214353325F4630210A00214353A1
:10049000325F4530210A00214353325F494E4954AF
:1004A000210A00214353325F455252210A00214361
:1004B00053325F4F5652210A00214353315F45307A
:1004C0005F25303258210A00214353315F45525293
:1004D000210A00214353315F494E56210A004C2521
:1004E000752000532575200049443A25303458289A
:1004F0002564290A004D6F7573653A206E6F74206C
:10050000737570706F727465640A000A4552523ACE
:10051000253032580A0052257520005725752000D5
:10052000572575200057257520005825752000494E
:10053000257520000A58545F4552520A00696E69B9
:10054000740A000A4552523A253032580A000A4BC2
:100550006579626F6172642073746172742E0A002F
:100560000A55534220636F6E666967757265642E23
:100570000A000A0A544D4B3A3761656237616236A8
:100580002F4C5546410A0A003403490042004D00F1
:1005900020005000430020006B00650079006200DD
:1005A0006F00610072006400200063006F006E0045
:1005B00076006500720074006500720000000E0392
:1005C00074002E006D002E006B002E00000004034E
:1005D000090409027400040100A0320904000001AA
:1005E00003010100092111010001224000070581DA
:1005F0000308000A09040100010300000009211199
:100600000100012236000705820308000A090402DE
:10061000000203000000092111010001222200074D
:1006200005830320000107050303200001090403DB
:100630000001030000000921110100012239000717
:100640000584032000011201100100000008EDFEE6
:10065000EE1B01000102000105010906A1010507C9
:1006600019E029E7150025019508750181020508A3
:1006700019012905950575019102950175039101EF
:100680000507190029F71500250195F87501810264
:10069000C00631FF0974A1010975150026FF0095F8
:1006A00020750881020976150026FF00952075083F
:1006B0009102C005010980A10185021601002637BB
:1006C000001A81002AB700751095018100C0050C41
:1006D0000901A1018503160100269C021A01002AC6
:1006E0009C02751095018100C005010906A1010554
:1006F0000719E029E7150025019508750181029584
:1007000001750881010508190129059505750191F3
:10071000029501750391010507190029FF150026AF
:10072000FF00950675088100C0636F6E73756D6577
:10073000723A20253034580A0073797374656D3A23
:1007400020253034580A000A002530325820006B2A
:100750006579626F6172643A20004C45443A202505
:100760003032580A00253032583A20253038622578
:10077000730A00722F632030313233343536370A32
:100780000064656C5F6B65795F6269743A206361D0
:100790006E27742064656C3A20253032580A006157
:1007A00064645F6B65795F6269743A2063616E2788
:1007B00074206164643A20253032580A003F0043B7
:1007C0003E20004C25640A000A092D20436F6E73F9
:1007D0006F6C65202D0A4553432F713A0971756975
:1007E000740A000A092D204D61676963202D0A648F
:1007F0003A0964656275670A783A096465627567E3
:10080000206D61747269780A6B3A09646562756774
:10081000206B6579626F6172640A6D3A0964656282
:100820007567206D6F7573650A763A097665727320
:10083000696F6E0A733A097374617475730A633A67
:1008400009636F6E736F6C65206D6F64650A302D80
:10085000343A096C61796572302D34284631302D77
:100860004634290A506175733A09626F6F746C6F70
:10087000616465720A6E3A094E4B524F0A003F009E
:100880004E4B524F3A206F66660A004E4B524F3A1B
:10089000206F6E0A0074696D65725F726561643302
:1008A0003228293A202530346C580A006B65796269
:1008B0006F6172645F6E6B726F3A2025580A006B2D
:1008C0006579626F6172645F69646C653A2025586E
:1008D0000A006B6579626F6172645F70726F746F2A
:1008E000636F6C3A2025580A00686F73745F6B65FC
:1008F00079626F6172645F6C65647328293A2025A0
:10090000580A000A092D20537461747573202D0A4A
:10091000004743433A20352E342E30204156522D85
:100920004C4942433A20322E302E30204156525FFD
:10093000415243483A20617672350A004F5054497B
:100940004F4E533A204C5546412045585452414B46
:10095000455920434F4E534F4C4520434F4D4D4139
:100960004E44204E4B524F204B45594D41505F5302
:10097000454354494F4E20424F4F544C4F414445FC
:10098000525F53495A450A004255494C443A203770
:1009900061656237616236202831323A33383A3045
:1009A00035204D61792031302032303230290A0033
:1009B0005649443A2030784645454428742E6D2ED9
:1009C0006B2E29205049443A2030783162656528E1
:1009D00049424D205043206B6579626F61726420FB
:1009E000636F6E76657274657229205645523A209F
:1009F0003078303030310A00444553433A20636F39
:100A00006E766572742049424D205043206B6579A3
:100A1000626F61726420746F205553420A000A09A4
:100A20002D2056657273696F6E202D0A000A6D6F56
:100A30007573653A206F66660A000A6D6F75736597
:100A40003A206F6E0A000A6B6579626F6172643AD0
:100A5000206F66660A000A6B6579626F6172643A9C
:100A6000206F6E0A000A6D61747269783A206F66B1
:100A7000660A000A6D61747269783A206F6E0A0026
:100A80000A64656275673A206F6E0A000A646562DF
:100A900075673A206F66660A000A0A626F6F746CA7
:100AA0006F616465722E2E2E2000433E20001124BB
:100AB0001FBECFEFDAE0DEBFCDBF04B603FE41C0FC
:100AC0008091850390918603A0918703B09188035C
:100AD0008730904BA740B04BA1F510928503109240
:100AE0008603109287031092880314BE0FB6F89401
:100AF000A8958091600088618093600010926000EA
:100B00000FBE1092010810920008E3E0F0E089E0C7
:100B100080935700E491E695E370E150E33040F4B0
:100B2000F0E0EE0FFF1FE35DFE4F8081918102C078
:100B300080E090E1E0E0F0E8E81BF90BF695E7953E
:100B4000099511E0A0E0B1E0ECE3FBE402C0059000
:100B50000D92A433B107D9F723E0A4E3B1E001C0BB
:100B60001D92A538B207E1F70E94C3100C949C2592
:100B70000C940000FF93EF93E0913401F091350164
:100B8000309709F00995EF91FF910895FC01859147
:100B9000803011F0EFDFFBCF0895FF27E0E230E275
:100BA00047FF0CC0419597FF09C0EDE26095709535
:100BB00080959095611D711D811D911D27FF02C0BB
:100BC000219530E350E2AA27660F771F881F991FEF
:100BD000AA1FA41710F0A41B63955A95A9F7AA3071
:100BE00008F0A95FA05DAF93F395611571058105CC
:100BF000910541F7ED3211F4EF93F395F21718F4E4
:100C00003F93F395FBCF8F91B5DFFA95E1F7089508
:100C1000E991F9918591803021F0853219F0AADFB0
:100C2000F9CF089520E0E89455915532C1F350333F
:100C300011F4689455915A3348F4505390F3220FAD
:100C4000022E220F220F200D250FF4CF0EF4219536
:100C500089919991533619F3533729F1533559F145
:100C6000BC0188279927E8945C3621F489919991F1
:100C700068945591543639F446EF7EF077FF0DC0F5
:100C80008FEF9FEF0AC055374AE039F0583540E101
:100C900021F0523642E009F00895FF93EF937DDF93
:100CA000EF91FF91B7CFFF93EF93FC0181918030DB
:100CB000B9F360DFFBCFFF93EF9368DFF1CFDF93F2
:100CC000CF93CDB7DEB72596A3DFCF91DF910895FF
:100CD000282F80913F01823071F08330B1F0813054
:100CE00001F5E62FF0E038E0739FE00DF11D1124CF
:100CF000E856FC4F13C0E62FF0E088E0789FE00D47
:100D0000F11D1124E85EFC4F09C0E62FF0E038E049
:100D1000739FE00DF11D1124E856FD4FE491E0387A
:100D200019F480E090E008959E2F9077892F90E04D
:100D300034E0959587953A95E1F738E0239F800D4B
:100D4000911D112444E0880F991F4A95E1F7EF7037
:100D50009C012E0F311DF901EE0FFF1FE050F849E5
:100D60008591949108955998519A08955198599A56
:100D700008955898509A08955098589A08955198FF
:100D8000599A85E08A95F1F7000089B186958170BE
:100D900008955098589A85E08A95F1F7000089B136
:100DA00081700895CF93DF93EC010E94BF068823E2
:100DB00041F0209731F085E08A95F1F70000219706
:100DC000F4CFCE01DF91CF910895CF93DF93C2E3AB
:100DD000D0E00E94BF06811108C0209731F085E065
:100DE0008A95F1F700002197F4CFCE01DF91CF91E2
:100DF00008952E9826982F9827980E94B3060E944F
:100E0000BC06E9E6F0E0808188608083E998089577
:100E1000E19AE99A0E94B6060C94BC06E9980E94F1
:100E2000B3060C94BC06CF932FB7F89480910201BF
:100E300090910301AC01442741155F4F21F0C92F68
:100E4000AC015F6F07C08F3F4FEF940741F0C82F91
:100E50004FEF5FEF509303014093020101C0CFEFCA
:100E60002FBF9C012F6F2F3F3F4F81F020917203C6
:100E700020FF1FC09F938F938FE194E09F938F93E8
:100E80000E945F060F900F900F900F90CF3F99F048
:100E90008091720380FF12C01F92CF9388E194E08B
:100EA0009F938F930E945F060F900F900F900F906B
:100EB00005C0CF3F19F48FEF9FEF02C08C2F90E059
:100EC000CF910895CF93CAE1C15069F00E941307F2
:100ED0008F3F2FEF920749F48FE99FE00197F1F7D9
:100EE00000C00000F1CF8FEF9FEFCF91089580E019
:100EF00090E890930101809300018FEF9FEF909312
:100F00000301809302010895EF92FF920F931F93C4
:100F1000CF93DF93082F109237018091720380FFE7
:100F20000CC01F920F9386E294E09F938F930E94D0
:100F30005F060F900F900F900F90E9980E94B306F4
:100F40000E94BC068FE891E00197F1F700C0000015
:100F50000E94B9060E94B60680E197E20E94D2067E
:100F6000892B11F481E079C0C0E0D0E0FF24F39434
:100F700010E0EE24E39490E59A95F1F7C8010C2E69
:100F800002C0959587950A94E2F780FF04C0FE247D
:100F90000E94BC0602C00E94B9060E94E506892B89
:100FA00011F482E05AC082E390E00E94D206892BBD
:100FB00011F483E052C02196C830D105E1F680E5F6
:100FC0008A95F1F7FF2019F00E94BC0602C00E942A
:100FD000B9060E94E506892B11F484E03EC082E345
:100FE00090E00E94D206892B11F485E036C090E58E
:100FF0009A95F1F70E94BC06C2E3D0E00E94C906B0
:10100000882341F0209741F025E02A95F1F7000070
:101010002197F4CFCD2B11F486E01FC082E390E03E
:101020000E94D206892B11F487E017C00E94E506C2
:10103000892B19F0C2E3D0E009C088E00EC02097E8
:1010400059F085E08A95F1F7000021970E94C906C2
:101050008823A9F3CD2BB9F489E0809337018091DF
:1010600037018061809337010E94B6060E94BC065A
:10107000E19AE99A8FEF9FEFDF91CF911F910F9146
:10108000FF90EF9008958FEF9FEF9093030180936F
:1010900002010E9477070E94B6060E94BC06E19AF0
:1010A000E99ADF91CF911F910F91FF90EF900C94EF
:1010B00062071F920F920FB60F9211242F933F9346
:1010C0004F935F938F939F9329B121708091730306
:1010D00040910001509101014115504819F480934D
:1010E000360112C090913601891771F09F5F891700
:1010F00059F090E2909337018093360180E090E8B8
:101100009093010180930001809100019091010171
:10111000969587959093010180930001222349F0D1
:10112000809100019091010190689093010180935A
:10113000000180910001909101019927803891056B
:1011400009F4CFC0A8F48032910509F4CAC038F47C
:10115000009709F4C6C0409709F46FC08AC0803474
:10116000910509F4BEC08035910509F466C081C0BF
:10117000803C9105F9F050F48039910509F45DC087
:10118000803A910509F075C084E63DC0803D910527
:1011900009F453C0803E910509F06BC080910001B5
:1011A00090910101892F992790930101809300016B
:1011B00084E051C084E649990FC0882369F025E096
:1011C0002A95F1F700008150F6CF882349F095E089
:1011D0009A95F1F7000081504999F7CF811181C0AC
:1011E0008091000190910101892F9927909301012D
:1011F0008093000183E02FC0882379F025E02A95B1
:10120000F1F700008150499BF7CF07C0882349F0D0
:1012100095E09A95F1F7000081504999F7CF811137
:1012200060C08091000190910101892F99279093CE
:1012300001018093000182E00EC080910001909135
:10124000010136E0969587953A95E1F79093010173
:101250008093000181E0809338018091000190919A
:10126000010199278F3F9105A1F48FEF80933701FA
:1012700010C080E88093370180E090E890930101EE
:101280008093000180E09FEF90930301809302011F
:1012900028C08091020190910301882781159F4FFA
:1012A00019F080E48093370180910201909103014D
:1012B000982F8827909303018093020120910001C9
:1012C000309101018091020190910301822B909352
:1012D00003018093020180E090E8909301018093E4
:1012E00000019F918F915F914F913F912F910F90AE
:1012F0000FBE0F901F901895CF93C82F8DEE0E94B0
:1013000084078C2FCF910C948407E82FE695E695FF
:10131000E695EF70F0E0EE5BFE4F4081282F2770DE
:1013200081E090E002C0880F991F2A95E2F7242FF0
:1013300030E028233923232B11F4842B8083089554
:10134000E82FE695E695E695EF70F0E0EE5BFE4F50
:101350002081382F377081E090E002C0880F991FFC
:101360003A95E2F7422F50E048235923452B19F0D4
:101370008095822380830895482F50E0FA013397A7
:10138000E138F10508F048C0EA5AFF4F0C94962561
:1013900087E108958FE108958CE5089580E608952A
:1013A00082E6089587E2089583E508958FE208951F
:1013B00089E3089587E308958FE3089587E4089506
:1013C0008FE4089586E508958EE508958FE60895E3
:1013D00080E0089585E608958EE608958FE70895E4
:1013E00080E3089588E3089580E4089588E40895EB
:1013F00080E5089587E508958FE5089588E10895CB
:1014000088E0089580E2089580E1089589E10895D3
:101410008DE6089588E208958F7708958FE0089506
:10142000CF93482F50E0FA017C97E834F105A0F5FE
:10143000E952FF4F0C94962585E53EC08AE53CC0F5
:101440008BE53AC08CE538C08DE536C08EE534C0FA
:101450008FE532C080E630C081E62EC082E62CC027
:1014600083E62AC08FE628C081E726C082E724C031
:1014700084E722C085E720C087E71EC088E71CC03C
:101480008AE71AC08CE718C08FE716C080E714C03F
:1014900089E712C08BE710C0C82F1F928F9389EB8A
:1014A00094E09F938F930E945F060F900F900F9090
:1014B0000F908C2F01C084E5CF9108950F931F9357
:1014C000CF93DF930E9458238C010E941307EC01F5
:1014D000019631F4C8010E947023843F9140A8F323
:1014E000CE01DF91CF911F910F9108950E94F906CF
:1014F0000C94080780917203816080937203E2E488
:10150000F1E0119281E0E235F807D9F70895E82F6C
:10151000F0E0EE5BFE4F80810895E2E4F1E011928D
:1015200081E0E235F807D9F70895982F80913F01BF
:10153000823049F492FB882780F990FD826091FD0A
:1015400084600C947C090895CF93DF9380913701D8
:10155000882311F1809137011F928F9383E495E0E6
:101560009F938F930E945F068091370180750F9043
:101570000F900F900F9071F480913E01893051F4DB
:101580008DE395E09F938F930E945F0610923E013A
:101590000F900F901092370180913801843051F4F0
:1015A00084E395E09F938F930E945F061092380129
:1015B0000F900F90E0913E018E2F90E08A309105C0
:1015C00008F01FC3FC01E15EFE4F0C9496250E94BB
:1015D00058239F938F938FE295E09F938F930E9460
:1015E0005F0610923F0110924101109240010E944B
:1015F0008D0A0E94D61881E035C00E940E072E98F1
:10160000269A2F98279A0E94582390933D01809301
:101610003C0182E00BC080913C0190913D010E9411
:101620007023853F914008F4ECC283E080933E0133
:10163000E8C22E9826982F9827980E9477070E9434
:1016400008070E9458239F938F938AE295E09F9307
:101650008F930E945F060E94582390933D018093D0
:101660003C0184E080933E010F900F900F900F900B
:10167000C8C20E941307019609F4C3C20E945823EE
:101680009F938F9385E295E09F938F930E945F06CF
:101690000E94582390933D0180933C0185E0E2CF66
:1016A00080913C0190913D010E947023853F9140C3
:1016B00018F087E080933E010E941307019609F419
:1016C000A0C20E9458239F938F9380E295E09F933E
:1016D0008F930E945F060E94582390933D01809350
:1016E0003C0186E0BFCF80913C0190913D010E947A
:1016F0007023853F914018F087E080933E010E945F
:101700001307019609F47DC20E9458239F938F937B
:101710008BE195E09F938F930E945F0687E0A2CFB5
:101720000E9458239F938F9386E195E09F938F9318
:101730000E945F0682EF0E9484070F900F900F9027
:101740000F908F3F2FEF920789F08A3F910589F420
:101750000E945E0A8F3F3FEF930771F0D82FCC278E
:101760000E945E0A9E01282BC90108C08FEF9FEFDF
:1017700005C08EEF9FEF02C080E090E090934101A2
:101780008093400180913701882381F08091370157
:101790001F928F938BE095E09F938F930E945F063B
:1017A000109237010F900F900F900F908091400191
:1017B000909141019C01222721154BEA340711F435
:1017C00082E00CC021153F4B11F483E007C0009765
:1017D000B9F38F3F2FEF920721F481E080933F010F
:1017E0000DC08F3F910561F785EF94E09F938F9334
:1017F0000E945F0610923F010F900F9080913F0171
:101800001F928F93809141018F93809140018F931C
:1018100088EE94E09F938F930E945F0688E0809308
:101820003E010F900F900F900F900F900F90E9C115
:101830000E9458239F938F9383EE94E09F938F93FE
:101840000E945F060F900F900F900F9080913F01C4
:10185000823031F0833041F488EF0E94840704C065
:101860000E944E160E94950A89E080933E010E94D4
:1018700058239F938F938EED94E09F938F930E94B4
:101880005F060F900F900F900F90C0913F01C230F4
:1018900009F47EC0C33009F439C1C13009F0B1C1C7
:1018A0000E9413078F3F3FEF930709F4AAC19C01E1
:1018B0002F7733272236310548F083ED94E09F934C
:1018C0008F930E945F0610923B0197C120913B01CC
:1018D000223009F444C028F4222351F0213019F1B8
:1018E00054C0233009F447C0243009F449C04DC026
:1018F000803E910569F01CF4009739F00EC0813EDE
:10190000910549F08F3F910541F488EC94E071C155
:10191000C0933B0176C182E02BC08038910508F46A
:101920002BC18F7761C18633910579F124F48A3216
:10193000910539F42AC08A3A910539F1863B91051F
:1019400021F18038910528F40E94100A0E9485092F
:101950001CC08F770E94100A0E94A00916C08D310A
:10196000910529F08D39910581F484E001C083E06F
:1019700080933B0146C18534910539F485E5FCC06F
:101980008534910511F485E52FC110923B0139C1D1
:101990000E9413078F3F4FEF940709F432C1E09183
:1019A0003A014E2F50E04930510508F0ACC0FA0121
:1019B000E75DFE4F0C949625803E910569F18CF40D
:1019C0008338910569F12CF4009771F58EEA94E063
:1019D000C1C08438910531F18A3A910509F40FC1EB
:1019E00023C0803F9105D1F02CF4813E9105E1F4B4
:1019F00084E080C08C3F910509F401C18F3F9105BF
:101A000099F40E948D0A83EA94E09F938F930E9439
:101A10005F0610923A01F1C082E06CC081E06AC0BA
:101A200082E05DC08FE65BC08038910508F4A4C0F9
:101A30000E948D0A87E994E0DCC08935910509F49C
:101A400062C0803F910521F08231910519F45BC09D
:101A500083E050C010923A018038910518F40E943A
:101A6000BC098AC00E948D0A8DE894E0C2C0833808
:101A7000910529F08438910521F48FE642C082E077
:101A800040C010923A018038910508F4ADC00E9420
:101A90008D0A83E894E0ADC010923A01823191053D
:101AA00009F4AFC08935910509F4ABC080389105C0
:101AB00018F40E94BC0998C00E948D0A86E794E041
:101AC00098C08431910529F0803F9105E1F486E0CA
:101AD00011C085E00FC087379105A9F480E00E940E
:101AE000850911C0449779F487E004C0803F9105CF
:101AF00051F488E080933A0184C08737910519F446
:101B000080E00E94A00910923A017BC00E94130756
:101B10008F3F2FEF920709F474C0209139012223DF
:101B200019F0213079F16DC08438910501F13CF450
:101B3000009771F083389105E1F482E01DC0803F89
:101B4000910589F08F3F9105A1F480E694E051C0A2
:101B50008BE694E09F938F930E945F060E948D0A0C
:101B60000E94D61831C081E0809339014AC08FE7C6
:101B700003C08038910518F40E94850942C083E5AE
:101B800094E037C08338910511F17CF4009739F562
:101B900085E494E09F938F930E945F060E948D0AD4
:101BA0000E94D618109239010FC08438910589F02F
:101BB0008F3F9105A1F487E394E09F938F930E9458
:101BC0005F061092390119C00F900F901AC082E081
:101BD00001C08FE70E94A0091092390112C0109233
:101BE00039018038910518F40E94A0090AC08DE2DD
:101BF00094E09F938F930E945F060F900F90109236
:101C00003E0181E0DF91CF910895809176020895A1
:101C10000895CF93DF9300D01F92CDB7DEB7209108
:101C20007C03243021F523E029839B838A8382E08F
:101C30008093E9008FEF9091E800815095FD06C0F8
:101C400095ED9A95F1F700008111F5CF8091E800AC
:101C500085FF0DC040E050E063E070E0CE010196EA
:101C60000E9479128091E8008E778093E8000F90AF
:101C70000F900F90DF91CF910895CF93DF9300D015
:101C80001F92CDB7DEB720917C03243029F522E0E6
:101C90002983805891099B838A832093E9008FEFE1
:101CA0009091E800815095FD06C095ED9A95F1F769
:101CB00000008111F5CF8091E80085FF0DC040E064
:101CC00050E063E070E0CE0101960E9479128091AD
:101CD000E8008E778093E8000F900F900F90DF91CF
:101CE000CF910895CF93DF93EC0190917C039430D2
:101CF00009F048C0809114018823D9F08091150122
:101D00008823B9F09093E90081E8815049F09091DF
:101D1000E80095FD05C09AE29A95F1F700C0F5CF6D
:101D20008091E80085FF2EC040E050E060E270E066
:101D300019C081E08093E90081E8815059F09091C9
:101D4000E80095FD07C0EFE3F1E03197F1F700C03F
:101D50000000F3CF8091E80085FF14C040E050E020
:101D600068E070E0CE010E9479128091E8008E77E1
:101D70008093E80080E2FE01A6E5B2E001900D92BA
:101D80008A95E1F7DF91CF910895CF93C0915401E7
:101D9000C1110BC00E946423643C79408105910508
:101DA00020F081E080935401C1E08C2FCF91089501
:101DB000FF920F931F93CF93DF93D82F0FB607FE99
:101DC00083C080917C03843081F08091070190E092
:101DD00001962091090130E082239323209108018C
:101DE00030E08217930709F0CDC00E94C50E811123
:101DF00010C08091070190E001962091090130E028
:101E0000822393232091080130E08217930709F081
:101E1000B9C00E9458238C01C091E900CF70909105
:101E2000EC00892F817090FD80E8C82B83E08093BF
:101E3000E90085E0F82E8091EB0085FD42C080919D
:101E4000EB0080FF3EC08091EE0087FF3AC080919A
:101E5000080190910701981709F457C09091E80084
:101E600095FF8EC0E0910501F0910601E80FF11D8C
:101E700020818F5F9091090189238093080120932D
:101E8000F1008091E80085FDE2CF8091E80080FFBD
:101E9000DECF8091E8008E778093E800F092040115
:101EA000D6CF8091070190E001962091090130E0A2
:101EB000822393232091080130E08217930709F4CD
:101EC0004CC0CF70C093E90040910701842F90E08F
:101ED00001962091090130E082239323209108018B
:101EE00030E08217930709F450C0E0910501F091AA
:101EF0000601E40FF11DD083809107018F5F90915F
:101F0000090189238093070140C08091E80085FF83
:101F100037C0D093F10021E03091F3008091F200BE
:101F200090E0932B892B91F08091E80080FF0EC008
:101F30008091E80085FF03C01092F100F9CF8091F5
:101F4000E8008E778093E800F0920401222309F4E0
:101F5000A8CFCF70C093E90018C0809104018823F6
:101F600009F4AFCF0E9458239C018017910711F408
:101F7000890161CF90910401915090930401F8CFB1
:101F800020E0CACF40910701B0CF80E0DF91CF9130
:101F90001F910F91FF90089580917B03811104C0E0
:101FA0000E94E5140C944215089510927B03089545
:101FB000089542E061EC81E00E94F21142E061ECA0
:101FC00082E00E94F21142E261EC83E00E94F21191
:101FD00042E261EC84E00C94F21180917E03833044
:101FE00009F455C030F4813071F0823009F48EC0AC
:101FF00008958A3009F47AC08B3009F460C08930C2
:1020000009F09CC020C080917D03813A09F096C000
:102010008091E800877F8093E80080918103909110
:102020008203892B21F460E286E592E003C060E040
:1020300080E090E070E00E94C6128091E8008B770B
:102040008093E800089580917D03813209F076C085
:102050008091810390918203009719F0039709F012
:102060006DC08091E800877F8093E8008091E80050
:1020700082FD05C080917C038111F8CF5FC0809103
:10208000F100809376028091E8008B7753C08091B5
:102090007D03813A09F052C08091810390918203BF
:1020A000892B09F04BC08091E800877F8093E8007E
:1020B0008091E80080FFFCCF8091140136C08091B0
:1020C0007D038132D9F58091810390918203892B20
:1020D000A9F58091E800877F8093E8000E9427128D
:1020E00080917F03809314010C94D61880917D0316
:1020F000813221F58091E800877F8093E8000E947B
:1021000027128091800380937702089580917D0348
:10211000813AA1F48091E800877F8093E800809164
:10212000E80080FFFCCF809177028093F1008091DE
:10213000E8008E778093E8000C9427120895809130
:10214000760280935501109276020E948D0A0C94BB
:10215000D6180C949F100E94052380917A0388233F
:1021600029F00E94122381110C94DC1108950E9421
:102170002623809155018093760208950C94B71020
:1021800008950C94C010CF9384B7877F84BF0FB697
:10219000F894A89580916000886180936000109207
:1021A00060000FBE90E080E80FB6F8948093610065
:1021B000909361000FBE88ED9EE00E94D8228AE0D5
:1021C00091E00E94491682E795E00E94C6050E94B0
:1021D000760A0E94FD160E94E5140E94421578942A
:1021E0000E94FF1680917C03843029F00E942E16F5
:1021F0000E94C010F7CF80E695E00E94C6050E94BD
:10220000C1108EE495E00E94C605C3E080917C0376
:10221000853019F40E94AB10F9CF0E94031720916A
:10222000E4003091E500809152019091530128170C
:10223000390709F468C08091E4009091E50090931B
:102240005301809352010E94C50E882309F45BC09C
:1022500080917C03843009F056C08091E9008F7032
:102260002091EC00922F917020FD90E8892BC09373
:10227000E9009091EB0090FF43C09091EE0097FF32
:102280003FC09091080120910701291709F1209181
:10229000E80025FF1DC0E0910501F0910601E90F5E
:1022A000F11D30819F5F20910901922390930801D5
:1022B0003093F1009091E80095FDE3CF9091E80014
:1022C00090FFDFCF9091E8009E779093E800D9CF00
:1022D0009091F3002091F20030E0392B232B81F014
:1022E0009091E80090FF0CC09091E80095FF03C02A
:1022F0001092F100F9CF9091E8009E779093E8005A
:102300008F708093E9000E942E1680CF292F3327EB
:1023100023303105C9F060F42130310581F02230DD
:10232000310509F041C084E790E022ED35E040C07E
:1023300021323105E1F02232310531F135C082E13F
:1023400090E026E436E034C099278130910549F0C9
:1023500028F0029749F5E8E8F5E005C0EEECF5E075
:1023600002C0EEEBF5E0849190E09F0121C0643063
:102370007105D0F4660F771FFB01EC5DFE4F2081E5
:10238000318189E090E014C06430710568F4FB018C
:10239000EE0FFF1FE45EFE4F20813181FB01E85EFE
:1023A000FE4F808190E004C080E090E020E030E0CB
:1023B000FA0131832083089580E189BD82E189BDDE
:1023C00009B400FEFDCF8091D8008F7D8093D800A6
:1023D0008091E00082608093E0008091E00081FDC8
:1023E000FCCF0895982F973068F59093E9009817DF
:1023F00039F07091EC002091ED005091F00003C095
:10240000242F762F50E021FD02C09F5FECCF30914A
:10241000EB003E7F3093EB003091ED003D7F309339
:10242000ED003091EB0031603093EB007093EC00E5
:102430002093ED005093F0002091EE0027FDE5CFB2
:1024400080E008958F708093E90081E00895809185
:102450007D0387FF11C08091E80082FD05C0809157
:102460007C038111F8CF11C08091E8008B770BC0FD
:1024700080917C03882349F08091E80080FFF8CFA9
:102480008091E8008E778093E80008952091E40021
:102490003091E50095E64091EC00842F817040FF7B
:1024A00023C08091E80080FD1DC080917C038823BB
:1024B00099F0853099F08091EB0085FD11C0409135
:1024C000E4005091E5002417350729F3915011F0ED
:1024D0009A01E1CF84E0089582E0089583E00895B1
:1024E00081E0089580E008954091E80042FFDDCF4B
:1024F0000895CF92DF92EF92FF920F931F93CF93A5
:10250000DF93EC018B017A010E944612811135C0E4
:10251000E114F10439F0F70180819181081B190B56
:10252000C80FD91FC12CD12C0115110529F180919B
:10253000E80085FD18C08091E8008E778093E80060
:102540000E942E16E114F10449F0F7018081918177
:10255000C80ED91ED182C08285E00FC00E944612EB
:10256000882311F30AC089918093F1000150110969
:10257000FFEFCF1ADF0AD8CF80E0DF91CF911F9114
:102580000F91FF90EF90DF90CF90089520918303FB
:10259000309184032617370748F06115710539F427
:1025A0002091E8002E772093E80001C0B901FC01DA
:1025B00020E06115710579F180917C038823F1F1A8
:1025C0008530F1F18091E80083FD3CC08091E80006
:1025D00082FD2EC08091E80080FFEBCF2091F300B8
:1025E0008091F20090E0922B6115710551F08830D6
:1025F000910538F421912093F10061507109019601
:10260000F3CF21E0089709F020E08091E8008E7771
:102610008093E800CECF2111CFCF0AC080917C03F8
:10262000882361F0853061F08091E80083FD0AC065
:102630008091E80082FFF2CF80E0089582E0089563
:1026400083E0089581E0089520918303309184030D
:102650002617370748F06115710539F42091E80015
:102660002E772093E80001C0B901FC0120E061153C
:10267000710591F180917C03882309F440C0853075
:1026800009F43FC08091E80083FD3DC08091E800DF
:1026900082FD2FC08091E80080FFE9CF2091F300F8
:1026A0008091F20090E0922B6115710559F088300D
:1026B000910540F424912093F10031966150710905
:1026C0000196F2CF21E0089709F020E08091E80020
:1026D0008E778093E800CBCF2111CCCF0AC08091B8
:1026E0007C03882361F0853061F08091E80083FDF0
:1026F0000AC08091E80082FFF2CF80E0089582E076
:10270000089583E0089581E008951F93CF93DF93A8
:10271000CDB7DEB7AA970FB6F894DEBF0FBECDBF18
:10272000EDE7F3E08091F100819323E0E538F207D3
:10273000C9F70E94ED0F8091E80083FF2EC18091C0
:102740007D0390917E03492F50E04A30510508F0F7
:1027500024C1FA01EE5CFE4F0C949625803821F0DE
:10276000823809F01AC108C08091790390917A03E8
:10277000992389F082600FC0809181038F70873028
:1027800008F00BC18093E9008091EB0085FB88275E
:1027900080F91092E9009091E800977F9093E8000B
:1027A0008093F1001092F100D1C0282F2D7F09F005
:1027B000F4C0882319F0823061F0EFC080917F036C
:1027C000813009F0EAC0933009F080E080937A0309
:1027D0002EC080917F0381112AC0809181038F7068
:1027E0002FEF280F263008F0D8C08093E900209101
:1027F000EB0020FF1CC0933021F48091EB0080623D
:1028000014C09091EB0090619093EB0021E030E0D8
:10281000A90102C0440F551F8A95E2F74093EA00D0
:102820001092EA008091EB0088608093EB00109298
:10283000E9008091E800877F8093E8000E942712DA
:10284000ACC08111AAC010917F031F778091E30073
:102850008078812B8093E3008091E800877F8093CC
:10286000E8000E9427128091E80080FFFCCF809151
:10287000E30080688093E300111102C082E001C090
:1028800083E080937C0389C08058823008F085C043
:1028900080917F03909180038C3D53E0950779F5FB
:1028A00083E08A838AE289834FB7F894DE01139626
:1028B00020E03EE051E2E32FF0E050935700E49136
:1028C00020FF03C0E295EF703F5FEF708E2F90E026
:1028D000EA3010F0C79601C0C0968D939D932F5F8C
:1028E000243149F74FBF8091E800877F8093E8004B
:1028F0006AE270E0CE0101960E94C61216C0609195
:10290000810370918203AE014F5F5F4F0E94861179
:10291000BC01892B09F441C09091E800977F909306
:10292000E80089819A810E9424138091E8008B77C6
:102930008093E80032C0803881F58091E800877F7D
:102940008093E800809178038093F1008091E80003
:102950008E7772CF811121C080917F039091800387
:1029600099270297D4F48091E800877F8093E8004C
:1029700080917F03809378030E94271280917803CF
:10298000811106C08091E30087FD02C081E001C093
:1029900084E080937C030E94D90F8091E80083FF3C
:1029A0000AC08091E800877F8093E8008091EB0067
:1029B00080628093EB00AA960FB6F894DEBF0FBE3C
:1029C000CDBFDF91CF911F9108950E9453150E94B2
:1029D0005B15E0EEF0E0808181608083E8EDF0E05F
:1029E00080818F77808319BCA7EDB0E08C918E7FBA
:1029F0008C9380818F7E808310927B0308950F9348
:102A00001F93CF93DF930E9453150E945B15C8ED6F
:102A1000D0E088818F7788838881806888838881E7
:102A20008F7D888319BC10927C03109278031092DA
:102A30007A031092790300EE10E0F80180818B7F19
:102A4000808388818160888342E060E080E00E942A
:102A5000F211E1EEF0E080818E7F8083E2EEF0E023
:102A6000808181608083808188608083F80180819B
:102A70008E7F8083888180618883DF91CF911F91D1
:102A80000F910895E8EDF0E080818F7E8083E7ED7F
:102A9000F0E080818160808384E082BF81E0809368
:102AA0007B030C94FF14E8EDF0E080818E7F80833F
:102AB0001092E20008951092DA001092E100089559
:102AC0001F920F920FB60F9211242F933F934F93A3
:102AD0005F936F937F938F939F93AF93BF93EF9386
:102AE000FF938091E10082FF0BC08091E20082FFA2
:102AF00007C08091E1008B7F8093E1000E942D163A
:102B00008091DA0080FF1FC08091D80080FF1BC039
:102B10008091DA008E7F8093DA008091D90080FF67
:102B20000DC080E189BD82E189BD09B400FEFDCF01
:102B300081E080937C030E94CC0F05C019BC1092E9
:102B40007C030E94D50F8091E10080FF19C0809125
:102B5000E20080FF15C08091E2008E7F8093E2004A
:102B60008091E20080618093E2008091D8008062D1
:102B70008093D80019BC85E080937C030E94A91043
:102B80008091E10084FF30C08091E20084FF2CC07E
:102B900080E189BD82E189BD09B400FEFDCF80914D
:102BA000D8008F7D8093D8008091E1008F7E809344
:102BB000E1008091E2008F7E8093E2008091E2004C
:102BC00081608093E20080917803882311F084E093
:102BD00007C08091E30087FD02C081E001C083E06F
:102BE00080937C030E94BE108091E10083FF24C08B
:102BF0008091E20083FF20C08091E100877F809375
:102C0000E10082E080937C03109278038091E100E0
:102C10008E7F8093E1008091E2008E7F8093E200BE
:102C20008091E20080618093E20042E060E080E019
:102C30000E94F2110E94D80FFF91EF91BF91AF91C6
:102C40009F918F917F916F915F914F913F912F91C4
:102C50000F900FBE0F901F9018950895CF938091FD
:102C60007C038823A1F0C091E900CF709091EC0023
:102C7000892F817090FD80E8C82B1092E900809127
:102C8000E80083FD0E948513CF70C093E900CF91C7
:102C9000089590937D0280937C020895E0917C02D8
:102CA000F0917D02309721F00190F081E02D0994A0
:102CB00080E00895EF92FF920F931F93CF93DF93DD
:102CC000E0917C02F0917D023097B1F18C0102809D
:102CD000F381E02D09958091720382FF2DC080FF62
:102CE00004C08FE497E00E94C605E80110E289E481
:102CF000E82E87E0F82E8091720380FF0BC0888158
:102D00001F928F93FF92EF920E945F060F900F9099
:102D10000F900F90115021961111EDCF80917203F9
:102D200080FF0AC087E497E0DF91CF911F910F9158
:102D3000FF90EF900C94C605DF91CF911F910F91FA
:102D4000FF90EF900895CF93DF9320917A02309116
:102D50007B022817390709F190937B0280937A024E
:102D6000E0917C02F0917D023097B9F0EC01068091
:102D7000F781E02D09958091720382FF0EC080FFDC
:102D80000CC0DF93CF9389E397E09F938F930E94CA
:102D90005F060F900F900F900F90DF91CF910895E5
:102DA000CF93DF9320917802309179022817390769
:102DB00009F19093790280937802E0917C02F0917E
:102DC0007D023097B9F0EC010084F185E02D099582
:102DD0008091720382FF0EC080FF0CC0DF93CF93FF
:102DE00089E297E09F938F930E945F060F900F9068
:102DF0000F900F90DF91CF9108950C94A6170E9429
:102E00004F230C947A0ABF92CF92DF92EF92FF92F7
:102E10000F931F93CF93DF9300D000D01F92CDB7B5
:102E2000DEB70E94A40A0FE712E0F12C8F2D0E945A
:102E3000870AB82EF801C080C82639F4F3940F5FD2
:102E40001F4FF0E1FF12F2CF30C08091720381FD7D
:102E50000E94A717D12CEE24E3948C2D8E21F9F03B
:102E6000D982FA8291E08B2D8E2109F490E09B8328
:102E70000E9458238160782F9D838C8349815A81D9
:102E80006B818D810E94DD1749815A816B817C8124
:102E90008D810E94F022F80180818E258083D39459
:102EA000EE0CF8E0DF12D9CFC9CF8FEF89838A8388
:102EB0001B820E9458238160782F9D838C834981D7
:102EC0005A816B818D810E94DD170E94EF220E9442
:102ED0004E1690917E02891741F10E944E16809302
:102EE0007E029091720392FF0EC090FF0CC01F9261
:102EF0008F938AE597E09F938F930E945F060F90D0
:102F00000F900F900F9080917E020F900F900F9076
:102F10000F900F90DF91CF911F910F91FF90EF9045
:102F2000DF90CF90BF900C9401230F900F900F90E3
:102F30000F900F90DF91CF911F910F91FF90EF9025
:102F4000DF90CF90BF9008950C94950A0895EF926A
:102F5000FF920F931F93CF93DF9383E797E00E9435
:102F6000C605C0E0D0E08CE2E82E81E0F82E05E650
:102F700017E08C2F0E94870A0E94DD22FF92EF92B9
:102F80001F928F93DF93CF931F930F930E945F063F
:102F900021968DB79EB708960FB6F8949EBF0FBEC8
:102FA0008DBFC031D10529F7DF91CF911F910F91CE
:102FB000FF90EF90089508950895CF93DF93CDB7D4
:102FC000DEB72B970FB6F894DEBF0FBECDBF942FA0
:102FD0004F83252F588769877A878B874A855B853A
:102FE000452B31F02F3F31F481E09F3F19F403C0AE
:102FF00081E001C080E080FD07C04F815885698570
:103000007A858B850E94F022DE01119686E0FD0113
:1030100011928A95E9F785E0FE01379601900D92AD
:103020008A95E1F749815A816B817C818D819E81EE
:103030000E94EB1E2B960FB6F894DEBF0FBECDBFDD
:10304000DF91CF910895CF93882309F465C0C82FED
:103050008CEF8C0F813A20F080E58C0F8E3248F493
:103060008C2F0E944325811157C08C2F0E94D321A1
:103070000CC080E28C0F883058F4C77081E001C02A
:10308000880FCA95EAF70E947822CF910C94B22259
:103090008BE58C0F833078F4C53A29F0C63A31F0CD
:1030A00083E890E005C081E890E002C082E890E00B
:1030B000CF910C94A31688E58C0F853168F5C83A3A
:1030C00089F0C93A91F0CA3A99F0CB3AA1F0CC3ADA
:1030D000A9F0CD3AB1F0CE3AB9F0CF3AC1F080E0E4
:1030E00090E017C082EE90E014C089EE90E011C02D
:1030F0008AEE90E00EC085EB90E00BC086EB90E08E
:1031000008C083EB90E005C084EB90E002C087EB41
:1031100090E0CF910C94D016CF910895882349F177
:103120009CEF980F913A20F090E5980F9E3218F49A
:103130000E9423220DC090E2980F983058F48770B7
:1031400091E001C0990F8A95EAF7892F0E947E22AB
:103150000C94B2229BE5980F933020F480E090E02D
:103160000C94A316885A853120F480E090E00C94EA
:10317000D0160895882321F00E9478220C94B22260
:103180000895882321F00E947E220C94B222089593
:103190000E9498220E9467220E94B22280E090E062
:1031A0000E94A31680E090E00C94D0160E94882222
:1031B0000C94C818CF92DF92EF92FF920F931F9357
:1031C000CF93DF9300D000D01F92CDB7DEB76C0154
:1031D0000E9403238111EAC285E0F601DE01119607
:1031E00001900D928A95E1F7F6014081518123818A
:1031F00034812115310531F05F3F31F481E04F3FDB
:1032000019F403C081E001C080E080FDCFC2F60167
:10321000F280E580E2948FE0E82249835A83FB82C2
:10322000722F3D832C836F2D8D810E944F218C0145
:103230000E944E210E943E20E12FE295EF708E2FDA
:1032400090E0FC01E45CFE4F0C949625812F807F7A
:103250001F70882311F01295107FFF2049F0112371
:1032600009F43BC2812F0E948B220E94B22235C2F8
:10327000802F0E948E18112309F498C2812F0E947A
:1032800091220F900F900F900F900F90DF91CF91A0
:103290001F910F91FF90EF90DF90CF900C94B2228E
:1032A000812F807F1F70803211F01295107F0023D4
:1032B00019F0013009F12BC0FF20A9F0EE2059F1DF
:1032C000F1E0812FEF1228C00F900F900F900F9018
:1032D0000F90DF91CF911F910F91FF90EF90DF90B2
:1032E000CF900C949B22EE2021F021E0E21609F40D
:1032F0005DC20E949E222DC0FF20E9F085E08E1560
:1033000008F454C20E947522812329F022C0FF20B4
:10331000F1F0E11015C0812F0F900F900F900F90DA
:103320000F90DF91CF911F910F91FF90EF90DF9061
:10333000CF900C94BA1894E09E1508F437C209C0D7
:10334000F601858180FFC9C18F708583E4CFE110CC
:10335000D7C1812F4AC1812F86958695837019F038
:103360008130B9F023C2FF2019F0C801937002C068
:1033700080E090E00F900F900F900F900F90DF91F2
:10338000CF911F910F91FF90EF90DF90CF900C9411
:10339000A316FF2019F0C801937002C080E090E0EE
:1033A0000F900F900F900F900F90DF91CF911F9182
:1033B0000F91FF90EF90DF90CF900C94D016812F5B
:1033C000837009F070C0F110F1C1202F229526956D
:1033D0002770220F220F602F6F70862F90E0A0E0E1
:1033E000B0E06C017D01022E04C0CC0CDD1CEE1C93
:1033F000FF1C0A94D2F704FF12C08FE090E0A0E017
:10340000B0E004C0880F991FAA1FBB1F2A95D2F7EE
:10341000BC01CD01609570958095909503C060E0EA
:1034200070E0CB011695169513701230B1F040F58F
:103430006C297D298E299F29113031F10F900F9031
:103440000F900F900F90DF91CF911F910F91FF90F0
:10345000EF90DF90CF900C9463206C297D298E290A
:103460009F290F900F900F900F900F90DF91CF91A9
:103470001F910F91FF90EF90DF90CF900C947D20E3
:103480000E946320C701B6010F900F900F900F901C
:103490000F90DF91CF911F910F91FF90EF90DF90F0
:1034A000CF900C944920FF2019F0812F817001C02A
:1034B0008695882309F47AC1202F229526952770B6
:1034C000220F220F602F6F70862F90E0A0E0B0E0F7
:1034D0006C017D01022E04C0CC0CDD1CEE1CFF1C17
:1034E0000A94D2F704FF12C08FE090E0A0E0B0E0B1
:1034F00004C0880F991FAA1FBB1F2A95D2F7BC01D1
:10350000CD01609570958095909503C060E070E066
:10351000CB011695169513701230B1F040F56C2959
:103520007D298E299F29113031F10F900F900F9036
:103530000F900F90DF91CF911F910F91FF90EF901F
:10354000DF90CF900C942A216C297D298E299F2908
:103550000F900F900F900F900F90DF91CF911F91D0
:103560000F91FF90EF90DF90CF900C943C210E9440
:103570002A21C701B6010F900F900F900F900F9066
:10358000DF91CF911F910F91FF90EF90DF90CF903F
:103590000C941821003FC1F128F480E4800F8032A0
:1035A00050F096C0023F09F45EC008F449C0033FE2
:1035B00009F46CC08DC0F02FF071EF2E812F8F7148
:1035C000FF2051F00E94B120802FEE2019F082954B
:1035D000807FA2CE8F70A0CE0E94D220802FEE20BE
:1035E00019F08295807F01C08F700F900F900F901F
:1035F0000F900F90DF91CF911F910F91FF90EF905F
:10360000DF90CF900C94C118FF20A9F024E02E1574
:1036100008F4CCC0812F8F710F900F900F900F90F6
:103620000F90DF91CF911F910F91FF90EF90DF905E
:10363000CF900C94F72085E08E1508F4B7C0EACF40
:10364000FF2099F0812F8F710F900F900F900F90A6
:103650000F90DF91CF911F910F91FF90EF90DF902E
:10366000CF900C94B120FF2069F3812F8F710F90C0
:103670000F900F900F900F90DF91CF911F910F91AE
:10368000FF90EF90DF90CF900C94D220FF2089F034
:10369000812F8F710F900F900F900F900F90DF91EF
:1036A000CF911F910F91FF90EF90DF90CF900C94EE
:1036B0009C200F900F900F900F900F90DF91CF9163
:1036C0001F910F91FF90EF90DF90CF900C94972077
:1036D000FF2099F0EE2009F4B5CF802F0F900F90C6
:1036E0000F900F900F90DF91CF911F910F91FF904E
:1036F000EF90DF90CF900C942318EE2009F4B5CF13
:10370000802F0F900F900F900F900F90DF91CF911F
:103710001F910F91FF90EF90DF90CF900C948E1837
:10372000412F4F70602FC6010E94DE230F900F9033
:103730000F900F900F90DF91CF911F910F91FF90FD
:10374000EF90DF90CF900C94991F01112FC0FF20B4
:1037500069F10E94D6189FEFE0E7F2E09150E04057
:10376000F040E1F700C000000F900F900F900F9015
:103770000F90DF91CF911F910F91FF90EF90DF900D
:10378000CF900C94BF23412F4F70602FC6010F9034
:103790000F900F900F900F90DF91CF911F910F918D
:1037A000FF90EF90DF90CF900C94E1230F900F905B
:1037B0000F900F900F90DF91CF911F910F91FF907D
:1037C000EF90DF90CF9008951F93CF93DF9300D0B9
:1037D00000D01F92CDB7DEB7942F4983252F5A838F
:1037E0006B837C838D834C815D81452B31F02F3F32
:1037F00031F481E09F3F19F403C081E001C080E013
:10380000182F117080FD31C049815A816B817C81F4
:103810008D810E944F21292F22952F702C3030F45A
:103820002A30A0F42250223030F022C02C30C9F0CF
:103830002F30B9F01DC0853A28F48430C0F48230AE
:1038400028F415C090E2980F983088F0883E30F444
:10385000803E68F48450813A58F409C0803F41F4B6
:1038600006C093FB112710F903C010E001C011E05E
:10387000812F0F900F900F900F900F90DF91CF91AD
:103880001F910895CF93DF9300D000D01F92CDB742
:10389000DEB70F900F900F900F900F90DF91CF91A8
:1038A0000895CF93DF9300D000D000D0CDB7DEB71E
:1038B00026960FB6F894DEBF0FBECDBFDF91CF9135
:1038C00008951F93CF93DF93C0918F0216E08091EC
:1038D0009002C81799F0D0E01C9FF0011D9FF00DD9
:1038E0001124EF56FD4F40815181628173818481A3
:1038F00095810E94511C2196C770E9CFDF91CF912D
:103900001F9108954091C1025091C2026091C3027B
:103910007091C4028091C5029091C6020C94511C12
:10392000CF938091C60282958F7009F05FC080911D
:10393000C302882309F45AC080918F02B09190028B
:103940007091C102A091C2024091C4025091C5027F
:1039500091E07F3F09F090E0692FC6E08B1709F4F2
:1039600045C04115510521F0AF3F21F020E003C0D3
:1039700021E001C0262F90E020FD35C0C89FF00156
:10398000C99FF00D1124EF56FD4F21812A132BC042
:103990002081271328C02281211125C02381348151
:1039A0002417350710F421503109241B350B283C0E
:1039B0003105C8F42091C6022F7020612093C60201
:1039C00026E0289FF001299FF00D1124EA56FD4FB3
:1039D00080818F708061808381EC92E00E94DA1890
:1039E000CF910C94611C01968770B8CFCF91089548
:1039F000AF92BF92CF92DF92EF92FF920F931F93FD
:103A0000CF93DF93CDB7DEB761970FB6F894DEBFE3
:103A10000FBECDBF7C0185E0F701DE011D96019050
:103A20000D928A95E1F7D7014C9111965C9111970F
:103A30001296DC90129713960D911C911497309169
:103A4000C1026091C2028091C4029091C5020097A8
:103A500031F06F3F31F421E03F3F19F403C021E022
:103A600001C020E0B22FB170BB2E20FD6EC1A0902E
:103A7000C302AA2009F4CCC02091C6020817190776
:103A800028F0F801E81BF90BCF0104C08095909550
:103A9000800F911FCC24C394883C910580F0C12CE9
:103AA000207F09F0A1C0702F198B088B6D2D89899B
:103AB0000E94421C81EC92E00E94DA18BDC0822F65
:103AC000807F09F056C0561315C0431313C0CD2C88
:103AD000D11010C02F7020612093C6020E94821C5A
:103AE00081EC92E00E94DA188091C602D701159607
:103AF0008C935FC10115110531F05F3F31F481E016
:103B00004F3F19F403C081E001C080E080FD03C095
:103B100081E08D2502C080E090E0B82FB170CB2EFF
:103B200080FF1CC080918F022091900236E08217A6
:103B300009F41CC190E0389FF001399FF00D112469
:103B4000EF56FD4F6181561306C06081461303C0D6
:103B50006281D61203C001968770E9CFCD2CDD209B
:103B600009F427C18091C60281608093C602C12CEE
:103B700020C1561308C0431306C0D11004C0809161
:103B8000C602D701B6C04D875E87DF86702F198BBE
:103B9000088B6D2D89890E94E41B882399F1DD2013
:103BA00089F12091C602822F82958F7090E0029752
:103BB00074F08091C1029091C20298878F83198618
:103BC0001B870A872C87CE0107960E94DA1886E0A9
:103BD000F701A1ECB2E001900D928A95E1F70E9405
:103BE000901C0E94821C11C0561781F14D875E8780
:103BF000DF86702F198B088B6D2D89890E94E41B3D
:103C0000811138C0C7010E94DA18CC24C394D1C0F6
:103C10000817190708F446C0F801E81BF90BCF0193
:103C2000883C910508F443C0C12C702F198B088B78
:103C30006D2D89890E94421CE1ECF2E086E0DF01F3
:103C40001D928A95E9F70E94821CB3C04313CECF20
:103C5000D110CCCF8091C602F7018583C7010E94A5
:103C6000DA1886E0E1ECF2E0DF011D928A95E9F7CF
:103C7000CA2C9FC0DD2031F22091C602822F82958E
:103C80008F7090E002970CF4A2CF8091C1029091C6
:103C9000C2029A8389831B821D830C832E83CE01EB
:103CA000019693CF80959095800F911FB9CFCD2C21
:103CB000DD2009F4A7CF561333C0431331C0209140
:103CC000C60220FD24C0822F82958F70482F50E0BD
:103CD00041155105E1F0D70115962C9315974F30FA
:103CE000510549F08F5F982F9295907F822F8F70AA
:103CF000892B15968C93C7010E94DA1886E0F7018C
:103D0000A1ECB2E001900D928A95E1F79CCF86E09C
:103D1000F701A1ECB2E001900D928A95E1F749C05C
:103D20004D875E87DF86702F198B088B6D2D8989F3
:103D30000E94E41B81114BCF8091C6028160809369
:103D4000C602C7010E94DA1834C0DD2009F45ACF38
:103D50004D875E87DF86702F198B088B6D2D8989C3
:103D60000E94E41B882309F44DCF31CF702F198BAB
:103D7000088B6D2D89890E944F21292F22952F7044
:103D8000223028F49F7039F0811105C00BC0243017
:103D900028F49F7049F4805E883020F0C7010E94AB
:103DA000DA18BC2CCB2C05C0F7019581907F99F7D0
:103DB000F9CF8C2D61960FB6F894DEBF0FBECDBF44
:103DC000DF91CF911F910F91FF90EF90DF90CF90F7
:103DD000BF90AF9008951F93CF93DF93CDB7DEB719
:103DE0002C970FB6F894DEBF0FBECDBF4F83588718
:103DF00069877A878B879C87CE0107960E94F81C7B
:103E00008823D1F09F8188852A853B85232B31F03B
:103E10008F3F31F481E09F3F19F403C081E001C07E
:103E200080E080FD47C04F81588569857A858B8504
:103E30009C850E94511C3EC086E0FE013796DE0143
:103E4000119601900D928A95E1F7FF81E8856A85C8
:103E50007B856115710531F0EF3F31F481E0FF3F63
:103E600019F403C081E001C080E080FD23C02091EF
:103E7000900230E0C90101968770992740918F0226
:103E800050E084179507F1F1F983EA837D836C8311
:103E900096E0929FD001939FB00D1124AF56BD4F75
:103EA000FE01319601900D929A95E1F78093900270
:103EB0000E94611C16E080918F02909190028917F8
:103EC00071F1189FC00111248F569D4F0E94F81C5C
:103ED000882329F1E0918F021E9FF0011124EF56F3
:103EE000FD4F4081518162817381848195810E945F
:103EF000511C80918F0290E00196877099278093E2
:103F00008F02D9CF0E94D6181092900210928F0281
:103F1000E1ECF2E086E0DF011D928A95E9F72C964C
:103F20000FB6F894DEBF0FBECDBFDF91CF911F91CA
:103F30000895DF92EF92FF920F931F93CF93DF9339
:103F4000FC01892B09F488C0E12CF12CDD24D394E9
:103F5000EF0121968491853709F460C058F48437C5
:103F600008F04EC0843008F068C08130D1F0823053
:103F700071F172C0883709F45BC050F4863709F4D8
:103F800053C0873709F068C08E2D0E94852252C029
:103F90009CE7980F903708F05FC08F770E948E18CB
:103FA0004EC08F010E5F1F4FFE01849190E2980F6B
:103FB000983050F48770FD2D01C0FF0F8A95EAF705
:103FC0008F2F0E948B2215C00E94231814C08F01CE
:103FD0000E5F1F4FFE01849190E2980F983068F4B5
:103FE0008770FD2D01C0FF0F8A95EAF78F2F0E9481
:103FF00091220E94B222E80122C00E948E18FBCFBB
:10400000CF010296FE01C491CC2361F0EFE9FFE0FD
:104010003197F1F700C00000C150F6CFCF010296F2
:10402000FE01F490EC010BC00E947522E82E07C03F
:104030000E9488220E94B22202C00E9423188F2D63
:10404000882341F0EFE9FFE03197F1F700C000006D
:104050008150F6CFFE017CCFDF91CF911F910F9160
:10406000FF90EF90DF9008956093470370934803AB
:104070008093490390934A030C940023089560931E
:104080004B0370934C0380934D0390934E030C9419
:10409000FF220F931F9300914B0310914C0320912B
:1040A0004D0330914E03602B712B822B932B609329
:1040B0004B0370934C0380934D0390934E031F91D9
:1040C0000F910C94FF220F931F9300914B031091BB
:1040D0004C0320914D0330914E03602371238223C2
:1040E000932360934B0370934C0380934D03909301
:1040F0004E031F910F910C94FF220F931F93009179
:104100004B0310914C0320914D0330914E036027D7
:1041100071278227932760934B0370934C038093FE
:104120004D0390934E031F910F910C94FF2260E07A
:1041300070E0CB010C9434200F931F9341E050E0CA
:1041400060E070E08A019B0104C0000F111F221F74
:10415000331F8A95D2F7C901B8011F910F910C94B2
:1041600034200F931F9341E050E060E070E004C002
:10417000440F551F661F771F8A95D2F7809147031A
:1041800090914803A0914903B0914A038A019B0191
:10419000082B192B2A2B3B2BC901B8011F910F911A
:1041A0000C9434200F931F9341E050E060E070E0E6
:1041B00004C0440F551F661F771F8A95D2F740959C
:1041C0005095609570958091470390914803A09118
:1041D0004903B0914A038A019B01082319232A232A
:1041E0003B23C901B8011F910F910C9434200F9308
:1041F0001F9341E050E060E070E004C0440F551FA1
:10420000661F771F8A95D2F78091470390914803E4
:10421000A0914903B0914A038A019B0108271927FD
:104220002A273B27C901B8011F910F910C94342014
:104230000F931F9300914703109148032091490366
:1042400030914A03602B712B822B932B1F910F917E
:104250000C9434200F931F9300914703109148034F
:104260002091490330914A036023712382239323D1
:104270001F910F910C9434200F931F9300914703CB
:10428000109148032091490330914A036027712718
:10429000822793271F910F910C94342008958F92B9
:1042A0009F92AF92BF92DF92EF92FF920F931F9374
:1042B000CF93DF9300D000D01F92CDB7DEB76B83D2
:1042C0007C838D838A018C819D81892B31F01F3FF6
:1042D00031F481E04F3F19F403C081E001C080E078
:1042E00080FF03C080E090E04DC08B818823D1F136
:1042F0008090470390904803A0904903B0904A03F0
:1043000080914B0390914C03A0914D03B0914E03CB
:10431000882A992AAA2ABB2A8FE1E82EF12CD501F6
:10432000C4010E2C04C0B695A795979587950A945D
:10433000D2F780FD06C081E0E81AF10880F7D12CA1
:1043400007C0DE2CB8018E2D0E946806019799F3F4
:1043500088E0189FF0011124E953FD4FE00FF11D93
:10436000D08209C088E0189FF0011124E953FD4F65
:10437000E00FF11DD08009831A8369817A818D2D28
:104380000E9468060F900F900F900F900F90DF9192
:10439000CF911F910F91FF90EF90DF90BF90AF9062
:1043A0009F908F90089590911401992379F19091A5
:1043B0001501992359F1982F9695969596959F31C9
:1043C000A1F0E0911601F0911701E90FF11D87703E
:1043D00021E030E0A90102C0440F551F8A95E2F7A1
:1043E000CA019181892B818308959091720390FF76
:1043F00029C01F928F938FE997E09F938F930E941C
:104400005F060F900F900F900F9008952091160166
:1044100030911701F90132969FEF40E051918517D5
:1044200089F09F3F19F4511101C0942F4F5F4E3115
:10443000A9F79F3F39F0F901E90FF11D97FDFA95B2
:1044400082830895089590911401992381F19091A8
:104450001501992361F1982F9695969596959F3120
:10446000A9F0E0911601F0911701E90FF11D877095
:1044700021E030E0A90102C0440F551F8A95E2F700
:10448000CA01809591818923818308959091720357
:1044900090FF1CC01F928F9381E897E09F938F93AA
:1044A0000E945F060F900F900F900F900895E0917B
:1044B0001601F09117019F01225E3F4F92818913EF
:1044C00001C012823196E217F307C1F7089581E027
:1044D00090E0E0911601F0911701E80FF91F1082AA
:1044E000019680329105A9F708958091710308958E
:1044F00090917103892B8093710308958095909119
:104500007103892380937103089580937103089543
:1045100010927103089590917003892B809370031A
:104520000895809590917003892380937003089576
:1045300010927003089580934F03089510924F03D3
:1045400008958091160190911701FC0131969C010C
:10455000205E3F4F80E0919191118F5FE217F3074A
:10456000D1F70895E0911601F09117018091710340
:104570008083E0911601F091170190818091700382
:10458000892B808380914F03882361F0E09116018D
:10459000F09117019081892B80830E94A1228111C3
:1045A00010924F0380911601909117010C945A16A6
:1045B000909335018093340108958295982F9373D9
:1045C00044E0949F900111248C7C86958695282B3D
:1045D000822F8575880F2A7A2695822B0895089553
:1045E000CF93DF9300D000D01F92CDB7DEB70F90EE
:1045F0000F900F900F900F90DF91CF910895089535
:1046000008950C94A41780E0089583B7817F8C608F
:1046100083BF83B7816083BF7894889583B78E7F8B
:1046200083BF0895CF930E94DB170E94A40A0E94C3
:10463000DC17C0E08C2F0E94870A811104C0CF5F75
:10464000C031C1F701C081E0CF9108950E948D0A69
:104650000C94D6181F920F920FB60F9211248F93BD
:104660009F93AF93BF938091730390917403A09134
:104670007503B09176034196A11DB11D809373031C
:1046800090937403A0937503B0937603BF91AF9199
:104690009F918F910F900FBE0F901F90189582E001
:1046A00084BD93E095BD9AEF97BD80936E00089509
:1046B0002FB7F8948091730390917403A0917503C0
:1046C000B09176032FBF08952FB7F89460917303CC
:1046D0007091740380917503909176032FBF0895B4
:1046E000CF92DF92EF92FF920F931F932FB7F89420
:1046F0004091730350917403609175037091760338
:104700002FBF6A017B01EE24FF248C0120E030E002
:10471000C016D106E206F30610F4415051099A0181
:10472000281B390BC9011F910F91FF90EF90DF906B
:10473000CF9008951F920F920FB60F9211248F936E
:104740009F93AF93BF938091730390917403A09153
:104750007503B09176030196A11DB11D809373037B
:1047600090937403A0937503B0937603BF91AF91B8
:104770009F918F910F900FBE0F901F9018950E94E0
:10478000E514F89487E797E7909301088093000871
:1047900087E090EBDC018093850390938603A093E0
:1047A0008703B09388039CE088E10FB6F894A8953E
:1047B000809360000FBE90936000FFCF80E090E098
:1047C00008950895CF93C82F1F928F9383EC97E09D
:1047D0009F938F930E945F0681E090E0A0E0B0E09D
:1047E000BC01CD0104C0660F771F881F991FCA95B1
:1047F000D2F70E943F200F900F900F900F90CF9113
:104800000C94D618CF938732A8F58E3108F02BC1BF
:10481000803109F49FC0F8F4873009F464C0A8F42B
:10482000863009F024C180917203817F8E7F80934E
:10483000720388EC97E00E94C6058AEA9AE00E941B
:10484000C60581E0809377034CC08B30F1F18E3048
:1048500009F46CC00CC1863109F4B0C020F4813178
:1048600009F4EDC004C1893109F491C08B3109F418
:1048700049C0FDC0883349F150F4893209F4F1C0D0
:10488000853309F4EEC0873209F0F1C0EAC0833401
:1048900009F4E7C028F48A3308F4E9C08953E4C076
:1048A000883409F0E4C00E94D61889E99AE00E9491
:1048B000C6052FEF83ED90E3215080409040E1F753
:1048C00000C000000E94BF230CC083EE97E05CC0D4
:1048D00080E89AE00E94C60580917203816080930F
:1048E0007203C1E0C9C080917203C82FC17080FFFC
:1048F000EFCF8CE89AE00E94C60580917203817F19
:104900008E7F3DC09091720391FBCC27C0F981E06E
:10491000C827892FC0FB81F980937203CC2319F03B
:1049200083E79AE027C085E69AE02EC09091720353
:1049300092FBCC27C0F981E0C827892FC0FB82F900
:1049400080937203CC2319F086E59AE013C086E4C5
:104950009AE01AC09091720393FBCC27C0F981E0D2
:10496000C827892FC0FB83F980937203CC2351F0B1
:104970008AE39AE00E94C605809172038160809369
:1049800072037AC08DE29AE00E94C605AACF8EE13A
:104990009AE00E94C60588EF99E00E94C60580EB68
:1049A00099E00E94C60588E899E00E94C6058CE35C
:1049B00099E00E94C60581E199E0E6CF83E099E0A5
:1049C0000E94C6050E944E161F928F9389EE98E0B2
:1049D0009F938F930E945F06809114011F928F9383
:1049E00082ED98E09F938F930E945F0680917702FB
:1049F0001F928F938FEB98E09F938F930E945F0697
:104A0000809115011F928F938CEA98E09F938F936A
:104A10000E945F060E9464239F938F937F936F93FE
:104A200085E998E09F938F930E945F068DB79EB7AC
:104A300046960FB6F8949EBF0FBE8DBF52CF0E9410
:104A4000D618C091150181E0C827C0931501CC2369
:104A500029F08BE898E00E94C6050EC080E898E037
:104A600093CF80E001C08D510E94E2233ACF8EE7C0
:104A700098E00E94C605C0E08C2FCF91089580E099
:104A800008950C943F25CF93C82F809177038823F6
:104A900019F0813059F042C0E0911601F0911701F0
:104AA0008081823261F08434D9F509C0E091160129
:104AB000F09117018081823211F0843461F48C2FDF
:104AC0000E944125811104C08C2F0E94022424C021
:104AD00081E090E021C08C2F0E943F2581111BC0F6
:104AE000C43189F018F4CB3029F010C0C93259F024
:104AF000C83361F488EC97E00E94C6058FEB97E01D
:104B00000E94C60508C0109277030CC08DEB97E099
:104B10000E94C60507C081E0817006C0109277032D
:104B200080E002C080E0F8CFCF910895EE0FFF1F24
:0C4B30000590F491E02D0994F894FFCF5B
:104B3C000080FFFF0556010000FF050E720E080EE7
:104B4C003D0E090E0101500340362239E906B30629
:104B5C0091065806E405FD05160636060000080009
:044B6C00040002003F
:106800008800EA44E944E244040005000600070069
:10681000080009000A000B000C000D000E000F001C
:1068200010001100120013001400150016001700CC
:10683000180019001A001B001C001D001E001F007C
:10684000200021002200230024002500260027002C
:10685000280029002A002B002C002D002E002F00DC
:10686000300031003200330034003500360037008C
:10687000380039003A003B003C003D003E003F003C
:1068800040004100420043004400450046004700EC
:10689000480049004A004B004C004D004E004F009C
:1068A000500051005200530054005500560057004C
:1068B000580059005A005B005C005D005E005F00FC
:1068C0006000610062006300640065A185006700EC
:1068D000680069006A006B006C006D006E006F005C
:1068E0007000710072007300890087008A008B00BD
:1068F000E000E100E200E300E400E500E600E7007C
:106900000100010001000100EA4401000100E2442D
:106910000100010001000100460001004A004B0097
:10692000010001004700480001000100E9440100A6
:106930000100010001000100010001003A003B00DC
:106940003C003D003E003F0040004100420043004B
:10695000010035004C0039000100440045005200A0
:1069600049000100010050004F0029004D004E0079
:1069700051000100010001000100010001000100BF
:1069800001000100010001000100010001000100FF
:1069900001000100010001000100010001004D00A3
:1069A0004A004E004B0001000100010001000100FF
:1069B00001000100010001000100010001000100CF
:1069C00001000100010001000100010001000100BF
:1069D00001000100010001000100010001000100AF
:1069E0000100010001000100490001000100010057
:1069F000010001000100010001000100010001008F
:00000001FF
